:020000040800F2
:1040000000000420D5560008C583000869C30008D5
:1040100065C3000861C300085DC30008000000001C
:1040200000000000000000000000000059C300086C
:1040300055C300080000000051C3000899C30008E0
:1040400049570008495700084957000849570008D0
:1040500049570008495700084957000849570008C0
:1040600049570008495700084957000849570008B0
:1040700049570008495700084957000849570008A0
:104080004957000849570008495700084957000890
:104090004957000849570008495700084957000880
:1040A0004957000849570008495700084957000870
:1040B0004957000849570008495700084957000860
:1040C0004957000849570008495700084957000850
:1040D000A5C3000849570008495700084957000878
:1040E0004957000849570008495700084957000830
:1040F0004957000849570008495700084957000820
:10410000495700084957000849570008495700080F
:1041100049570008495700084957000849570008FF
:1041200049570008B1C3000849570008495700081B
:1041300049570008000000000000000000000000D7
:1041400000000000000000000000000049570008C7
:1041500049570008495700084957000849570008BF
:1041600049570008495700084957000849570008AF
:104170004957000849570008000000004957000847
:10418000495700084957000849570008495700088F
:104190004957000849570008000000004957000827
:1041A0000000000000000000000000004957000867
:1041B00049570008495700080000000000000000AF
:1041C00000000000000000000000000000000000EF
:1041D0000000000000000000000000004957000837
:1041E000104B1A68136899685868C90710D54106BA
:1041F0000ED5B2F8B010FF290BD0FF2010B4DC6848
:10420000A2F8B000A2F8AE40D8605DF8044B704749
:104210007047D9684FF47F40A2F8AC10A2F8B00004
:10422000D860704794D200202E4B2F491B682F4A2C
:104230002DE9F04F2DED108BBDB0126804931B6873
:104240008B4200F03D8201F580618B425CD0A1F58C
:1042500068712748591A18BF0121181A18BF012080
:10426000002900F03882002800F03582214C224ECF
:10427000224DA34218BFB34214BF01240024AB4215
:104280000CBF002404F001041CB11D4CA34241F0FA
:104290000E804FF40064224208D01D68ED0600F144
:1042A000CF83184CA34232D0014230D01149124C76
:1042B00012488B4218BFA34214BF01210021834240
:1042C0000CBF002101F0010119B10D498B4241F0F1
:1042D00018804FF480610A421CD13DB0BDEC108BB8
:1042E000BDE8F08F90D200201060024000640240D0
:1042F00070640240286002402864024088600240E6
:104300008864024010640240900600F1F18110219F
:104310000A42E2D01A681507DFD5D64A934200F266
:10432000DF81D54A934240F2DA87D44B99600498F2
:1043300041F2E43241F2F8334FF07E51D04E024464
:10434000034400F50779CF4D41F2042741F20444BC
:104350001160196033464F442E4604444D460DF11A
:10436000B008994654F8040F414603681B682C9521
:10437000CDE92E6998472E9B03224146404603B162
:104380009847A742EED1049A02F59253D2F80C78DE
:104390001B78002B00F0858541F2412341F2E811A2
:1043A0001144D25C0B6D72B197F82020D7ED107AD2
:1043B000002A00F09F87049A02EB830041F2E41286
:1043C0000244C2ED007A1CAA0020039242F8040BBA
:1043D0004245FBD1424600203CAC42F8040BA242CD
:1043E000FAD1002BD7ED0B7A97ED0D7A40F30681C9
:1043F000F1EE0C3ADFEDA46A049A41F2382067EE40
:10440000A67A079127EE237A111802F2AC6002F225
:10441000EA72FCEEE77A0991FDEEC73A08920021B4
:104420009A4B17EE902ADFED9A8A13EE904AF8EE37
:10443000E33A92B2069104EBC40B9649541077EE1E
:10444000633A4FEA8B0B059112040E94924982460F
:104450000F920BF124029FED918A9B449FED900AED
:104460009C18DFED900A9FED901ADFED901A9FEDFA
:10447000902ADFED902A9FED903ACDF83480079B8B
:10448000B0EE407A039AF1EE006AF3EC017AB0EEF6
:10449000004A059D77EEE87A0793069BA7EE887A97
:1044A00013F0010F0D9B14BF104618460A9067EEDB
:1044B000207AFCEEE77A17EE903AC3F3493255F8CA
:1044C000222062F3160307EE103A27EE017AA7EED8
:1044D000664AC4FE217AB7EE004A87FEC44A27EE38
:1044E000027ADAED024A054600F1400734EE644AEA
:1044F0000F98FCEEC77ADAF80020BAF9043024EEFF
:10450000224ACDF830A017EE90EADDF820C0DDF8A1
:1045100038A00EEB00060B9216443CF8020F03FB8A
:104520000AF2A3EBA30395ED006A06EB004074EEDC
:10453000844A764400EB82004FEAD059C0F30E2043
:1045400001EB890831F82920B8F9028008FB00F056
:1045500002EBE03292B282F4004042F38D08420B4B
:104560004344C00402F10108920007EE900A1BB216
:104570004FEA88000BEB02092244F8EE677A0BEB56
:104580000008204499ED007AD2ED006A67EE837A44
:1045900098ED005AD0ED005A35EE475A75EEE65ABE
:1045A000A7EE857AE7EEA56AF0EE467A76EEC76A60
:1045B000A3EEA67AE4EE877AE5EC017AAF42ACD1BD
:1045C0000A9A0B980432DDF830A07044069DBF1A99
:1045D000AAF80430099B0135BF08CAED024A8AEDEA
:1045E000034A0AF1100A0EFB070706954AF8107CE9
:1045F0001B68AB423FF743AFDDF834802F4907EE2D
:10460000903AF7EE006A039A01EB8303B8EEE77A7B
:104610004146D3ED007A77EEA67AC7EE876A92ED2F
:10462000007AD1ED007A26EE877A67EEA67AA2ECC0
:10463000017A9045E1EC017AF1D1049A4146039B5D
:10464000E832B3EC017A0432F1EC017ABEEEE87A9A
:104650009845FEEEE87A17EE100A22F8080C17EEDD
:10466000900A22F8060CECD13DB0BDEC108BBDE8F1
:10467000F08F00BF58640240B860024000640240FE
:10468000757B00085D7B00080000804730D800087B
:1046900000008A4290C20020CC180020ABAAAA3D9C
:1046A0000000FE420000004BC92F963B00000000B6
:1046B0000000804F0000803D0000802FACC7000844
:1046C00091067FF524AE1968CE067FF520AE202432
:1046D000054B9C6013E094067FF519AE2024DCE5C1
:1046E000024BD96023E600BF006002400064024034
:1046F0001968CF067FF50BAE2024D54B9C6004983B
:1047000041F2E43241F2F8334FF07E51D14E02448F
:10471000034400F50779D04D41F2042741F20444E7
:104720001160196033464F442E4604444D460DF146
:10473000B008994654F8040F414603681B682C954D
:10474000CDE92E6998472E9B03224146404603B18E
:104750009847A742EED1049A02F59253D2F80C780A
:104760001B78002B00F0988141F2412341F2E811BF
:104770001144D25C0B6D72B197F82020D7ED107AFE
:10478000002A00F0B385049A02EB830041F2E412A0
:104790000244C2ED007A1CAA0020039242F8040BE6
:1047A0004245FBD1424600203CAC42F8040BA242F9
:1047B000FAD1002BD7ED0B7AD7ED0D3A40F30481F7
:1047C000B1EE0C7ADFEDA56A049A41F2382067EE6B
:1047D000A67A079123EE877A111802F2AC6502F2ED
:1047E000EA72FCEEE77A0991FDEEC73A08920021E1
:1047F0009B4B17EE902ADFED9B8A13EE900AF8EEA2
:10480000E33A92B2069100EBC0009749541077EE5C
:10481000633A800005910E94120400F12409934933
:104820009FED938A1C189FED930A9944DFED920A3D
:10483000AB469FED921ADFED921A9FED922ADFEDC3
:10484000922A9FED923A0F92CDF83480079BB0EEFA
:10485000407A039AF1EE006AF3EC017AB0EE004A76
:10486000059D77EEE87A0793069BA7EE887A13F00A
:10487000010F0D9B14BF104618460B9067EE207A6F
:10488000FCEEE77A17EE903AC3F3493255F822204E
:1048900062F3160307EE103A27EE017AA7EE664A96
:1048A000C4FE217AB7EE004A87FEC44A27EE027A98
:1048B000DBED024A054600F1400734EE644A0F98EA
:1048C000FCEEC77ADBF80020BBF9043024EE224A64
:1048D000CDF830B017EE90EADDF820C0DDF838B042
:1048E0000EEB00060A9216443CF8020F03FB0BF293
:1048F000A3EBA30395ED006A06EB004074EE844A37
:10490000764400EB82004FEAD05AC0F30E2001EB50
:104910008A0831F82A20B8F9028008FB00F002EB7F
:10492000E03292B282F4004042F38D08420B4344DD
:10493000C00402F10108920007EE900A1BB24FEA90
:10494000880004EB020A4A44F8EE677A04EB000898
:1049500048449AED007AD2ED006A67EE837A98EDCA
:10496000005AD0ED005A35EE475A75EEE65AA7EEDA
:10497000857AE7EEA56AF0EE467A76EEC76AA3EE90
:10498000A67AE4EE877AE5EC017AAF42ACD10A98D8
:10499000069D70440135DDE90B2B06950432ABF81A
:1049A0000430099B0BF1100BBF1A4BED024A0BEDC3
:1049B000014ABF080EFB07074BF8107C1B68AB428F
:1049C0003FF744AFDDF83480314907EE903AF7EE17
:1049D000006A039A01EB8303B8EEE77A4146D3ED10
:1049E000007A77EEA67AC7EE876A92ED007AD1ED6B
:1049F000007A26EE877A67EEA67AA2EC017A9045D5
:104A0000E1EC017AF1D1049B4146039A03F59473DA
:104A1000B2EC017A0433F1EC017ABEEEE87A90450B
:104A2000FEEEE87A17EE100A23F8080C17EE900A4B
:104A300023F8060CECD13DB0BDEC108BBDE8F08F37
:104A4000144A934240F27484014BDC6057E600BF85
:104A500000640240757B00085D7B00080000804711
:104A600030D8000800008A4290C20020CC180020F4
:104A7000ABAAAA3D0000FE420000004BC92F963BA6
:104A8000000000000000804F0000803D0000802FEB
:104A9000ACC70008586402407B6A542197F8202074
:104AA0004FF4527501FB03F1049E1CA841F23C2413
:104AB00005FB021506F5016A039000205544039991
:104AC000355141F8040B4145FBD1414600203CAC37
:104AD00041F8040BA142FAD197F8281097F830401A
:104AE00001EB4101D5483E68214497ED018A002E33
:104AF00097ED02CA00EBC10450F83110D7ED038ADC
:104B00000E9197F838106068099197F8391097ED71
:104B1000049A0A91397E97ED05DAD7ED0B9A97ED55
:104B20000DAAD7ED07AA97ED0FBA0B91129640F395
:104B30000B844FF45271542603EB430B4FF0D20E0B
:104B400001FB02F1049CCBEBCB0BDFEDBD7A06FB46
:104B50000313049E0EFB02BB04F5A96406EB60017F
:104B600006F5D162F318DFEDB7CA01F55C79129949
:104B70000C92B4464A1C119300F0010320460F9298
:104B800078EEE78AB04AB7EE003AF0EE6CDA1494A9
:104B9000059219AA10930CF5D5644B10089215973D
:104BA00016AA01269FEDA9FADFEDA9EA07469FEDB7
:104BB000A9EADFEDA9BA13930792CDF834800694E1
:104BC000119BD3F860C80CF1FF3202EB0B030AEB28
:104BD000830393ED006ACCEE067AF6EEE77A0021C5
:104BE000069C26EE276A7CEE466A481C0EE05318A7
:104BF00048BF01335B1005EB830E9EED007AF4EEA7
:104C0000C76AF1EE10FA40F100811A468242EEDCEA
:104C1000FDEEE77A01EB0B02584406940AEB8202A0
:104C200017EE903A0AEB8000D2ED007A0CFB0333CA
:104C3000D0ED005A76EEE76A194436EE257A75EE25
:104C4000E75ACB0736EE276AC6EEA57A09D5F0EE0D
:104C5000465AF7EE006AB0EE476AB0EE657A76EE35
:104C6000E77A78EEAC6A059CCDED187A2DEE2BDA5A
:104C7000CDED1B7A3CEE09CA36EE266ADFED777A77
:104C800037EE267AF0EE6E6A7DEE83DA7CEE8DCA20
:104C9000E6EE0F6AB0EE6E6A63EE08FAA7EE0F6AF0
:104CA00066EE8E6AFCEEE66A26EE0E7A16EE903A14
:104CB000BCEEC77AC3F3493017EE102A54F820002F
:104CC000C2F3493160F3160354F8211006EE903A0E
:104CD000079B61F3160266EEA76A07EE102ACDED78
:104CE000166A67EE277ACDED177A93E80700089BDE
:104CF00083E80700099B002B40F0B48006F0010018
:104D000080F001000D9B039A002818BF1346184637
:104D10000B9B002B40F08480012E00F02383A7F131
:104D200020023B460C994FF0000C069C21F802CB68
:104D3000A142FBD10A990694002968D106F001012D
:104D400081F0010111B1049991F8A816109C002C72
:104D500000F09180D9F80040A4460E9C5CF80480D5
:104D60000090F0EE6A3A48469DED190ADDED1A0A08
:104D7000F0EE4A2A9DED1B1AB0EE692AF0EE4B1AAE
:104D80000136C0470F9B203709F12C09B342B0EE22
:104D90006F3A7FF415AFF7EE007A159FDDF8348097
:104DA00097ED018A87EEAD7A129A2D4B03EB8203C1
:104DB0004246F7EE007AF6EE006AB4EEE78AB0EE0D
:104DC000666AF1EE10FA88BF87EE888AD3ED007A22
:104DD000099B022B039B77EEA67AA7EE886A26EE44
:104DE000076A0CBF66EE266AF0EE466A93ED007A1B
:104DF000D2ED007A26EE077A67EEA67AA3EC017A66
:104E00009845E2EC017AF1D1FDE51946EDE60A9903
:104E1000012933D0A6F10101B1FA81F1490991E7E5
:104E2000049B03F5A5620B9B012B2ED0129B711ED8
:104E3000013B8B422BD00C9B74E700BF0800002085
:104E400000008A420000000090C20020ABAAAA3DE8
:104E50000000FE420000004B9A9999BFC92F963B73
:104E6000ACC70008099B012B14D0A6F10100B0FAD1
:104E700080F0400946E7DDF8388071E7711E139C29
:104E80008C42D4BF002101215CE7012ED3D113460F
:104E90000C9A47E7701E139B8342D4BF0020012069
:104EA00030E797F820204FF452717B6A542501FBBC
:104EB00002F1049E1CA841F23C2405FB031506F5F3
:104EC000016A0390002055440399355141F8040BC1
:104ED0004145FBD1414600203CAC41F8040BA142C6
:104EE000FAD197F8281097F8304001EB4101D648E5
:104EF0003E68214497ED018A002E97ED02CA00EB2F
:104F0000C10450F83110D7ED038A0E9197F838108C
:104F10006068099197F8391097ED049A0A91397EE3
:104F200097ED05DAD7ED0B9A97ED0DAAD7ED07AA05
:104F300097ED0FBA0B91129640F309824FF452711C
:104F4000542603EB430B4FF0D20E01FB02F1049CFD
:104F5000CBEBCB0BDFEDBD7A06FB0313049E0EFB00
:104F600002BB04F5A96406EB600106F5D162F318F3
:104F7000DFEDB7CA01F55C7912990C92B4464A1C70
:104F8000119300F0010320460F9278EEE78AB14AB0
:104F9000B7EE003AF0EE6CDA1494059219AA109369
:104FA0000CF5D5644B100892159716AA01269FEDB3
:104FB000AAFADFEDAAEA07469FEDA9EADFEDA9BA52
:104FC00013930792CDF834800694119BD3F860C8F0
:104FD0000CF1FF3202EB0B030AEB830393ED006A43
:104FE000CCEE067AF6EEE77A0021069C26EE276ADA
:104FF0007CEE466A481C0EE0531848BF01335B1034
:1050000005EB830E9EED007AF4EEC76AF1EE10FA1E
:1050100040F101811A468242EEDCFDEEE77A01EBB7
:105020000B02584406940AEB820217EE903A0AEB00
:105030008000D2ED007A0CFB0333D0ED005A76EEFF
:10504000E76A194436EE257A75EEE75ACC0736EE54
:10505000276AC6EEA57A09D5F0EE465AF7EE006A41
:10506000B0EE476AB0EE657A76EEE77A78EEAC6A33
:10507000059CCDED1B7A2DEE2BDACDED187A3CEEAA
:1050800009CA36EE866ADFED787A36EE877AF0EE78
:105090006E6A7DEE83DA7CEE8DCAE6EE0F6AB0EEC4
:1050A0006E6A63EE08FAA7EE0F6A66EE8E6AFCEE91
:1050B000E66A26EE0E7A16EE903ABCEEC77AC3F395
:1050C000493017EE102A54F82000C2F3493160F33A
:1050D000160354F8211006EE903A089B61F316026D
:1050E00066EEA76A07EE102ACDED196A67EE277AF9
:1050F000CDED1A7A93E80700079B83E80700099B28
:10510000002B40F0B58006F0010080F001000D9BFF
:10511000039A002818BF134618460B9B002B40F03B
:105120008580012E00F02181A7F120023B460C99D9
:105130004FF0000C069C21F802CBA142FBD10A994A
:105140000694002969D106F0010181F0010111B135
:10515000049991F8A816109C002C00F09280D9F8C0
:105160000040A4460E9C5CF804800090F0EE6A3A81
:1051700048469DED160ADDED170AF0EE4A2A9DED30
:10518000181AB0EE692AF0EE4B1A0136C0470F9B91
:10519000203709F12C09B342B0EE6F3A7FF415AF16
:1051A000F7EE007A159FDDF8348097ED018A87EEDF
:1051B000AD7A129A2D4B03EB82034246F7EE007A4A
:1051C000F6EE006AB4EEE78AB0EE666AF1EE10FA27
:1051D00088BF87EE888AD3ED007A099B022B039B58
:1051E00077EEA67AA7EE886A26EE076A0CBF66EE0F
:1051F000266AF0EE466A93ED007AD2ED007A26EE4A
:10520000077A67EEA67AA3EC017A9845E2EC017A78
:10521000F1D1FFF712BA1946ECE60A99012933D009
:10522000A6F10101B1FA81F1490990E7049B03F568
:10523000A5620B9B012B2ED0129B711E013B8B4252
:105240002BD00C9B73E700BF0800002000008A42AF
:105250000000000090C20020ABAAAA3D0000FE4260
:105260000000004B9A9999BFC92F963BACC7000824
:10527000099B012B14D0A6F10100B0FA80F040097F
:1052800045E7DDF8388070E7711E139C8C42D4BF6F
:10529000002101215BE7012ED3D113460C9A46E78A
:1052A000701E139B8342D4BF002001202FE7A4F57A
:1052B000896418361835A34218BFB34214BF0124BD
:1052C0000024AB420CBF002404F00104002C41D0A8
:1052D000274CA3423ED04FF00064FEF7DCBF254AC6
:1052E0009342254B0AD9D960FFF721B8F6EEE77A49
:1052F000FFF749BAF6EEE77AFFF75DB89960FFF776
:1053000016B84839A4F57A7418308B4218BFA342F6
:1053100014BF0121002183420CBF002101F00101D3
:10532000E1B113498B4219D04FF08061FEF7F0BF15
:10533000124A93423FF6E1A90E4A93427FF6C8A96A
:105340000D4BDC60FFF7DBB99FED0D7A2CE59FED8F
:105350000C7A2EE74FF40014FEF79DBF4FF4801136
:10536000FEF7D6BF149B0C9ADCE4149B0C9ADEE685
:10537000A06402405860024000600240B8600240F1
:045380000000807F2A
:1053840010B5054C237833B9044B13B10448AFF37B
:1053940000800123237010BD7C0400200000000065
:1053A40070C5000808B5034B1BB103490348AFF3AC
:1053B400008008BD000000008004002070C50008C3
:1053C40053B94AB9002908BF00281CBF4FF0FF3168
:1053D4004FF0FF3000F072B9ADF1080C6DE904CE66
:1053E40000F006F8DDF804E0DDE9022304B07047BC
:1053F4002DE9F047089E04468846002B4BD18A428B
:10540400154667D9B2FA82F24AB1C2F1200701FA0D
:1054140002F320FA07F7954047EA030894404FEA5D
:10542400154E230CB8FBFEF71FFA85FC0EFB1788FC
:1054340043EA084307FB0CF1994209D9EB1807F139
:10544400FF3080F01B81994240F21881023F2B44C7
:105454005B1AA4B2B3FBFEF00EFB103344EA034420
:1054640000FB0CFCA44509D92C1900F1FF3380F092
:105474000781A44540F2048102382C4440EA0740E5
:10548400A4EB0C0400271EB1D4400023C6E900435A
:105494003946BDE8F0878B4209D9002E00F0EB8035
:1054A4000027C6E9000138463946BDE8F087B3FA5B
:1054B40083F7002F47D18B4202D3824200F2FA8055
:1054C400841A61EB030301209846002EE0D0C6E95C
:1054D4000048DDE702B9FFDEB2FA82F2002A40F0AA
:1054E4008F80491B4FEA154E1FFA85F80127B1FB3F
:1054F400FEFC230C0EFB1C1143EA014308FB0CF1D8
:10550400994207D9EB180CF1FF3002D2994200F20C
:10551400CD808446591AA3B2B1FBFEF00EFB1014E1
:1055240043EA044408FB00F8A04507D92C1900F10C
:10553400FF3302D2A04500F2B6801846A4EB08045B
:1055440040EA0C409FE7C7F1200CBB4022FA0CFE56
:105554004EEA030E01FA07F420FA0CF521FA0CF3D3
:105564004FEA1E482543B3FBF8F92C0C08FB19330A
:105574001FFA8EFA44EA034309FB0AF49C4202FA36
:1055840007F200FA07F10BD91EEB030309F1FF3010
:1055940080F087809C4240F28480A9F10209734420
:1055A4001B1BADB2B3FBF8F008FB103345EA034410
:1055B40000FB0AFAA24508D91EEB040400F1FF33EC
:1055C4006BD2A24569D90238744440EA0940A0FB71
:1055D4000289A4EB0A044C45C2464B4654D351D02D
:1055E400002E69D0B1EB0A0564EB030404FA0CFC49
:1055F400FD40FC404CEA0505C6E90054002747E796
:10560400C2F1200320FA03F7954001FA02F021FACF
:1056140003F34FEA154E3843010CB3FBFEF71FFAB0
:1056240085F80EFB173341EA034107FB08F38B426D
:1056340004FA02F407D9691807F1FF3C2FD28B4210
:105644002DD9023F2944CB1A81B2B3FBFEF00EFBE5
:10565400103341EA034100FB08F38B4207D9691870
:1056640000F1FF3C17D28B4215D902382944C91ADC
:1056740040EA07473BE73746304609E70746E7E68F
:105684001846FBE64145ABD2B8EB020A69EB0E02C1
:1056940001381346A4E76046E9E7184695E76746EC
:1056A400D1E781467CE702382C4447E7ACF1020C91
:1056B4002B442FE7384608E73746E9E6704700BF32
:1056C400F1EE103A43F08073E1EE103A704700BFF8
:1056D400DFF84CD0002103E0124B5B5843500431F7
:1056E4001148124B42189A42F6D3002103E0104BA2
:1056F4005B58435004310F480F4B42189A42F6D37B
:105704000E4A02E0002342F8043B0D4B9A42F9D3BF
:1057140006F052FE06F078FE06F016FE7047000012
:105724000000042000DA0008000000207C040020AF
:10573400E041000800000000A41100007C040020E7
:10574400CCD20020FEE70000124BDB68C3F3022337
:1057540010B4C3F107041A1D042C28BF0424062A1C
:105764004FF0FF328CBF033B0023A240002821EA04
:10577400020101FA03F14FEA0111C9B204DB064B3D
:1057840019545DF8044B704700F00F00034B195493
:10579400F7E700BF00ED00E000E400E014ED00E0F6
:1057A40038B50E4B0E4A1B68A2FB03239B09013B31
:1057B400B3F1807F10D20B4A0024F0200A49072558
:1057C400536081F82300214694604FF0FF30156048
:1057D400FFF7BAFF204638BD012038BD0000002085
:1057E400D34D621010E000E000ED00E0034A1168C0
:1057F40013685B1A012BFBD9704700BFA4D20020A9
:10580400036C0246002B00F08480136CDB0604D585
:105814000023012082F83C307047136C4B494C48FC
:105824001940136841F00201F0B411644168494D14
:1058340021F4403141604168546821434160596812
:10584400106921F48071D2F808C0D76859605C6887
:10585400966A44EA0024AE425C605C6824F04074BA
:105864005C60586840EA0C005860986820F4006056
:105874009860996841EA070199604ED09868D46AA3
:1058840020F07060986099680E439E60986820F0DC
:10589400405098609968214399609868946920F011
:1058A40002009860996841EA4401996092F82010D6
:1058B40000293BD1596821F400615960D86A002558
:1058C400D46920F470005669611ED8622846DC6AE7
:1058D40044EA0154DC629C6824F400749C609C6873
:1058E40092F8301044EA41249C609C6824F480645B
:1058F4009C60996841EA862199605564136C23F091
:10590400030343F001031364002382F83C30F0BC2A
:105914007047436480F83C3077E7996821F0706100
:105924009960996821F040519960B6E75C68516AC2
:1059340044F40064481E5C60596821F46041596075
:10594400596841EA40315960B8E700BFFDEEFFFFF6
:10595400002301400100000F2DE9F0410223DFF88C
:10596400688041EA00200F24C8F81830454600B288
:105974004FF48037FFF73AFF4FF400324FF400231F
:105984000126C8F81820C8F81830FFF72FFF0EE0DA
:10599400AE61FFF72BFF0823013CAB61FFF726FF45
:1059A4004FF40023AB61FFF721FF631C05D040FADD
:1059B40004F3DA07ECD4AF61EBE70223AB61BDE893
:1059C400F041FFF713BF00BF001002402DE9F04380
:1059D400B2F1010E02F0010854BF774617467F105A
:1059E400B94249DA0D466FF0404C6C1C00EB850659
:1059F400630000EBC40403EB0C05D4ED007A00EB68
:105A0400850595ED007AB4EEE77AF1EE10FA02DD41
:105A1400013B00EB8304D4F80090BB421D46C6F85A
:105A24000090E2DBB8F1000F2CD05D1E48BF1D468C
:105A34008B424FEA65051BDDAE0011E06A1E00EBE8
:105A4400830C3F682B4648BF2A46A94200EB060454
:105A5400CCF800704FEA62024FEA8206154607DA74
:105A64008719D7ED007AF4EEC07AF1EE10FAE5D496
:105A740084ED000ABDE8F08300EB8104B8F1000F67
:105A8400F6D10B46023A48BF7246B3EB620FCCD153
:105A940001335B0000EB8302013B52F8042C2260CB
:105AA40000EB8304C1E700BF0B1A402B40F398803E
:105AB4002DE9F04106469046002A00F0928000F15C
:105AC4000807DB1096ED017A08F1FF3811ED016A41
:105AD40006EB8303D6ED006AD3ED007AF4EEC77AC1
:105AE400F1EE10FA35DDF4EEC67AF1EE10FA6ED46A
:105AF400B4EEC67AF1EE10FA35D486ED007AC6ED2E
:105B0400016A51ED017A96ED007A3A460B46F4EEBD
:105B1400C76A141F2546F1EE10FA17D4F4EEC77ABB
:105B2400043BF1EE10FA06DD73ED017AF4EEC77A68
:105B3400F1EE10FAF8DCA3421ED9186842F8040CFE
:105B4400C3ED006A53ED017A96ED007AF2EC016A36
:105B5400DDE7B4EEC67AF1EE10FACED4F4EEC67AEE
:105B6400F1EE10FA33D586ED006AF0EE667A41ED77
:105B7400016AD6ED016AC6E742462046FFF794FF64
:105B8400A31B402B21DD2146B8F1000F99D19C10B5
:105B9400A71E7F1007F1010806EB880800E0013F0B
:105BA40038ED010A224639463046FFF70FFF002F31
:105BB400F5D135ED010A002133683046AC1B2B606A
:105BC400A210FFF703FF042CF3DCBDE8F081C6ED5F
:105BD400007AC3ED006A51ED017AD6ED016A92E7CD
:105BE40070470D46D3E700BF884241D0031D994258
:105BF4003ED0F0B46FF003073F1A1D4690ED007AD3
:105C0400F5EC017AB4EEE77AF1EE10FA12DD7C19C4
:105C1400002C4FEAA40206DD2C4653F8046D013A29
:105C240044F8046DF9D1C0ED007AA9422B46E4D1C1
:105C3400F0BC704715ED027A2C461A1FF4EEC77AB1
:105C4400F1EE10FA01D40FE01A46134653F8046932
:105C540044F8046D12ED017AF4EEC77AF1EE10FA0D
:105C6400F2D4C2ED007AE0E71A46C2ED007ADCE72E
:105C7400704700BF4368002B14DB03F1FF3343601C
:105C840010D108300A4610B582B08C686B4603C840
:105C940083E803002CB119461046D368984702B034
:105CA40010BDFEE7704700BF90ED0A7AB7EE006AB8
:105CB400D0ED094A002931EE471AD0ED087A9FED5C
:105CC400CF4AF0EE006ADFEDCE5A70EEE40AB0EE91
:105CD400465A45FE845A30EE670AA5EE817AA1EE53
:105CE400E65AE5EEA04AE5EE807A2DE9F04F77EE2C
:105CF400611A8DB080ED0A7AC0ED094A81EE851AE9
:105D0400C0ED087A81FE461A81FE041A0025194660
:105D140003F1200436EE416A21F8025BA142FBD173
:105D2400F1EE005ADFEDB56AB0EE007AA7EEE57A3F
:105D340087FE267AF7EE004A87FE647AB1EE0C5AA3
:105D440090ED024ADFEDAF5AA3F1020EAE4F023AD4
:105D540062EE852ADDF858C0B0EE445ADFEDAB1A86
:105D640062EE256A9FEDAA2A016863EEA53A96EED3
:105D7400075AF146BCEEE67A089067EE827A8846C6
:105D8400B0EE642A654617EE103A0592FCEEE77A07
:105D94000491B0EE456A9BB2BDEEE25A00939B03B8
:105DA40066EE211ACDED027A15EE104A0193B8EE93
:105DB400C55A04EBC4061446B60032EEC55ADFEDEC
:105DC400952A06F124033E441F44B0F9043017EE2B
:105DD400900A039363464033CDE906CE9E4634F8D9
:105DE400022F8044019B34EE214A08EB024295EDD8
:105DF400006A39F802CF110C5A40009B03FB01F1F1
:105E0400854B51404FEAD15BC1F30E2103EB8B0A62
:105E140033F82B20BAF902A0A2F500420AFB01F1E3
:105E240002EBE13189B24A0BCB04511C920007EE1C
:105E3400103A890006EB020B3A44B8EE477A06EBB7
:105E4400010A3944DBED007AD2ED006A27EE227AAA
:105E5400DAED004AD1ED005A74EEE74A75EEE65ADF
:105E6400E7EE247AE7EE256A76EEE76AE5EE267A2F
:105E7400F0EE466A67EE847A37EE827AE3EE276ABA
:105E840067EE237AFCEEE77A17EE903A6344A9F8BA
:105E94000030E5EC016AAE45A1D1169BF1EE006A33
:105EA4000898F0EE007A1A1D049B90ED097A1946C1
:105EB400AA1A029BE7EE667A9208039C194480EDC5
:105EC400024A848002FB0311DFED4C6A0492C0EDA8
:105ED400031A0160DDE906CEC7FEA67A87FEC22A50
:105EE400DFED4B7AF7EE001A90ED064A27EE277A9B
:105EF400B0F91430F0EE442A0269DFED447ABCEEC6
:105F0400C77A0293D1EE022A06909FED422A17EE39
:105F1400109A059809EB020362EEA72A98460393A8
:105F240030F8022F34EE224A019B08EB02429CED2A
:105F3400006A3EF8024FC844110C5A40009B03FB10
:105F440001F1354B51404FEAD15BC1F30E2103EB14
:105F54008B0A33F82B20BAF902A0A2F500420AFBFF
:105F640001F102EBE13189B24A0BCB04511C9200DE
:105F740007EE103A890006EB020B3A44B8EE477A72
:105F840006EB010A3944DBED007AD2ED006A27EE14
:105F9400027ADAED004AD1ED005A74EEE74A75EE62
:105FA400E65AE7EE247AE7EE256A76EEE76AE5EE4E
:105FB400267AF0EE466A67EE847A37EEA17AE7EE47
:105FC400836A67EE237AFCEEE77A17EE903A23446D
:105FD400AEF80030ECEC016AAC45A1D10698DDE9DD
:105FE400032380ED064A03FB0922029BC0ED072A26
:105FF400838202610DB0BDE8F08F00BF0000000095
:10600400CDCCCC3D0000804730D800080000803D56
:106014000000804F0000802FCC18002090ED0A7AF9
:10602400B7EE006AD0ED094A002931EE471AD0EDE7
:10603400087A9FEDCF4AF0EE006ADFEDCE5A70EE9B
:10604400E40AB0EE465A45FE845A30EE670AA5EEDD
:10605400817AA1EEE65AE5EEA04AE5EE807A2DE9D2
:10606400F04F77EE611A8DB080ED0A7AC0ED094ADF
:1060740081EE851AC0ED087A81FE461A81FE041A63
:106084000025194603F1200436EE416A21F8025B2B
:10609400A142FBD1F1EE005ADFEDB56AB0EE007A11
:1060A400A7EEE57A87FE267AF7EE004A87FE647A41
:1060B400B3EE025A90ED024ADFEDAF5AA3F1020E9D
:1060C400AE4B023A62EE852ADDF858C0B0EE445A6F
:1060D400DFEDAB1A62EE256A9FEDAA2A016863EE32
:1060E400A53A96EE075AF146BCEEE67A089067EEBA
:1060F400827A8846B0EE642A059217EE104A04911B
:10610400FCEEE77AB0EE456AA4B2BDEEE25A009422
:10611400A40366EE211ACDED027A15EE105AB8EEFC
:10612400C55A0194144605EB4526654632EEC55A18
:10613400DFED952AB60006F604071E441F44B0F9A5
:10614400043017EE900A039363464033CDE906CE3C
:106154009E4634F8022F8044019B34EE214A08EB1A
:10616400024295ED006A39F802CF110C5A40009BA7
:1061740003FB01F1854B51404FEAD15BC1F30E2182
:1061840003EB8B0A33F82B20BAF902A0A2F50042E4
:106194000AFB01F102EBE13189B2CA094B06511C39
:1061A400920007EE103A890006EB020B3A44B8EE6F
:1061B400477A06EB010A3944DBED007AD2ED006A36
:1061C40027EE227ADAED004AD1ED005A74EEE74A5E
:1061D40075EEE65AE7EE247AE7EE256A76EEE76A8C
:1061E400E5EE267AF0EE466A67EE847A37EE827A36
:1061F400E3EE276A67EE237AFCEEE77A17EE903A2D
:106204006344A9F80030E5EC016AAE45A1D1169BC0
:10621400F1EE006A0898F0EE007A1A1D049B90EDE6
:10622400097A1946AA1A029BE7EE667A9208039C39
:10623400194480ED024A848002FB0311DFED4C6AAD
:106244000492C0ED031A0160DDE906CEC7FEA67A0A
:1062540087FEC22ADFED4B7AF7EE001A90ED064A6C
:1062640027EE277AB0F91430F0EE442A0269DFED04
:10627400447ABCEEC77A0293D1EE022A06909FEDCF
:10628400422A17EE109A059809EB020362EEA72A38
:106294009846039330F8022F34EE224A019B08EB10
:1062A40002429CED006A3EF8024FC844110C5A4069
:1062B400009B03FB01F1354B51404FEAD15BC1F325
:1062C4000E2103EB8B0A33F82B20BAF902A0A2F5B6
:1062D40000420AFB01F102EBE13189B2CA094B0623
:1062E400511C920007EE103A890006EB020B3A4467
:1062F400B8EE477A06EB010A3944DBED007AD2EDB9
:10630400006A27EE027ADAED004AD1ED005A74EE03
:10631400E74A75EEE65AE7EE247AE7EE256A76EE6A
:10632400E76AE5EE267AF0EE466A67EE847A37EE9F
:10633400A17AE7EE836A67EE237AFCEEE77A17EE3A
:10634400903A2344AEF80030ECEC016AAC45A1D19C
:106354000698DDE9032380ED064A03FB0922029B2C
:10636400C0ED072A838202610DB0BDE8F08F00BF43
:1063740000000000CDCCCC3D00008047D0200020A0
:106384000000803D0000804F0000802FCC180020CA
:10639400D0ED0A6AB7EE007AD0ED095A002931EE41
:1063A400661AD0ED087A9FEDC15AF0EE004A9FEDCF
:1063B400C06A70EEE50AB0EE474A06FE056A30EEA2
:1063C400670AE6EE016AA1EEE44AE6EE205AE6EE3A
:1063D400007A2DE9F04F76EEE11A8DB0C0ED0A6A2D
:1063E400C0ED095AC1EE844AC0ED087AC4FEC74A1A
:1063F400C4FE854A0025194603F1200477EE646A39
:1064040021F8025BA142FBD1F1EE005A9FEDA76A8D
:10641400B0EE007AA7EEE57A87FE067AF7EE005A28
:1064240087FE657A9FEDA34AA3F1020C90ED026A00
:10643400023A22EE042ADFEDA01A62EE842A0368EF
:10644400B0EE465A169EBCEEC22AB0F90450FCEED9
:10645400E22A019396EE875A984667EEA17A12EEE5
:10646400101A12EE903A0295354689B29BB29FED0E
:10647400937A4035FCEEE77A8C030093039525EE7E
:10648400075AE146924663EE843A3546069617EE7D
:1064940090EACDF81CC026460892894F039A894B8E
:1064A400039008469FED884ADDF800C004910594E6
:1064B4003AF8024FF04436EE056A08EB0444210C26
:1064C400744000FB01F16140CC0DC1F30E2107EBD8
:1064D400840B37F82440BBF902B00BFB01F104EB49
:1064E400E13424B284EAE471002CA1EBE47139F8BC
:1064F400024F4FEA410189B20CFB01F14FEA915B73
:106504004FEA812107EE901A03EB8B01F8EE677ACC
:1065140091ED007AD1ED016A67EE847A76EEC76A6E
:10652400A7EEA67AD5ED006AD8BFB1EE477A67EE3A
:10653400067A37EEA57AE3EE276A67EE237AFCEE55
:10654400E77A17EE901A2144A9F80010E5EC016AE5
:10655400AA42ADD11699F1EE006A0398F0EE007AE2
:1065640001F1040B019990ED097AA5EB0B0B714431
:10657400029CE7EE667A4FEA9B0B089A84800BFB39
:106584000E11DFED4A6A80ED026A80ED035A016064
:10659400DDE9066CC7FEA67AC7FEE55ADFED467A4A
:1065A400B7EE004A90ED066A27EE277A0169F0EE0D
:1065B400467AB0F91440DDF80090BCEEC77ACDF805
:1065C40000B0D4EEA57A9FED405A019417EE10EA7C
:1065D4007144F0EE675ADFED397A8846029165EE30
:1065E400A75ADDE9040B32F8024F36EE256A08EBB0
:1065F4000444F044210C8BEA040400FB01F16140E3
:10660400CC0DC1F30E2107EB840A37F82440BAF904
:1066140002A00AFB01F104EBE13424B284EAE47140
:10662400002CA1EBE4713CF8024F4FEA410189B21E
:1066340009FB01F14FEA915A4FEA812107EE901AC2
:1066440003EB8A01F8EE677A91ED007AD1ED016AE5
:1066540067EE857A76EEC76AA7EEA67AD6ED006A6B
:10666400D8BFB1EE477A67EE067A37EE847AE7EE62
:10667400836A67EE237AFCEEE77A17EE901A2144D8
:10668400ACF80010E6EC016AAE42ACD1DDF800B023
:10669400DDE902300BFB0E31019B80ED066A83823B
:1066A4000161C0ED075A0DB0BDE8F08F0000000095
:1066B400CDCCCC3D000080470000804F0000803DE1
:1066C400CC1800202CC800080000802FD0ED0A6AE6
:1066D400B7EE007AD0ED095A002931EE661AD0EDF2
:1066E400087A9FEDCD5AF0EE004A9FEDCC6A70EE29
:1066F400E50AB0EE474A06FE056A30EE670AE6EEA2
:10670400016AA1EEE44AE6EE205AE6EE007A2DE9AB
:10671400F04F76EEE11A8DB0C0ED0A6AC0ED095A69
:1067240081EE841AC0ED087A81FE471A81FE051AAB
:106734000025194603F1200477EE416A21F8025B33
:10674400A142FBD1F1EE005A9FEDB36AB0EE007A9C
:10675400A7EEE57A87FE067AB7EE006A87FE467AE8
:10676400B1EE0C5A90ED024ADFEDAD0AA3F1020E30
:10677400F0EE441ADFEDAB4A62EE852A023A67EE88
:10678400A47ADDF858C0D6EE871AA74F22EE207AF5
:10679400DFEDA65ABDEEE25ADFEDA56AFCEEE77A1C
:1067A4000168BCEEC77A059215EE103AB8EEC55AE8
:1067B40014460CF1400203EBC30617EE103A61EEE7
:1067C400A51AF1469BB2B0EE462AB60063EEA63A8D
:1067D400019332EEC55A06F124033E4408908846DC
:1067E4001F44B0F904306546DFED922A039317EE97
:1067F400900A914B0491CDED027ACDE906CE9646EE
:1068040034F8022F8044019934EE214A08EB024205
:1068140095ED006A39F802CF120C01FB02F282F303
:106824001802C2F3C831C2F30E0203EB810A33F833
:106834002110BAF902A0A1F500410AFB02F201EB12
:10684400E23189B24A0BC90407EE101A511C9200B6
:106854008900B8EE477A06EB020B3A4406EB010ACC
:106864003944D2ED006A27EE227ADBED007ADAEDC4
:10687400004AD1ED005A74EEE74A75EEE65AE7EEA7
:10688400247AE7EE256A76EEE76AE5EE267AF0EEFC
:10689400466A67EE847A37EE827AE3EE276A67EE19
:1068A400237AFCEEE77A17EE902A6244A9F80020D6
:1068B400E5EC016AAE45A3D1169AF1EE006A089898
:1068C400F0EE007A02F104090299049A039CA5EB04
:1068D40009090A4490ED097A84804FEA9904E7EEA5
:1068E400667A80ED024A04FB0122DFED4B6A0494D0
:1068F400C0ED031A0260DDE906CEC7FEA67A87FE64
:10690400C22ADFED487AF7EE001A90ED064A27EE28
:10691400277A0269F0EE442ADFED447AB0F91410C4
:10692400BCEEC77A0690D1EE022A05989FED412A63
:1069340017EE109A02914A4462EEA72A90460392F7
:1069440030F8022F34EE224A019908EB02429CED02
:10695400006A3EF8024FC844120C01FB02F282F3B3
:106964001802C2F3C831C2F30E0203EB810A33F8F2
:106974002110BAF902A0A1F500410AFB02F201EBD1
:10698400E23189B24A0BC90407EE101A511C920075
:106994008900B8EE477A06EB020B3A4406EB010A8B
:1069A4003944D2ED006A27EE027ADBED007ADAEDA3
:1069B400004AD1ED005A74EEE74A75EEE65AE7EE66
:1069C400247AE7EE256A76EEE76AE5EE267AF0EEBB
:1069D400466A67EE847A37EEA17AE7EE836A67EE59
:1069E400237AFCEEE77A17EE902A2244AEF80020D0
:1069F400ECEC016AAC45A3D10698DDE9032380EDF4
:106A0400064A03FB0922029BC0ED072A8382026126
:106A14000DB0BDE8F08F00BF00000000CDCCCC3D30
:106A2400000080430000804F30D800080000803D03
:106A3400000080470000802FCC180020D0ED0A6AA7
:106A4400B7EE007AD0ED095A002931EE661AD0ED7E
:106A5400087A9FEDCD5AF0EE004A9FEDCC6A70EEB5
:106A6400E50AB0EE474A06FE056A30EE670AE6EE2E
:106A7400016AA1EEE44AE6EE205AE6EE007A2DE938
:106A8400F04F76EEE11A8DB0C0ED0A6AC0ED095AF6
:106A940081EE841AC0ED087A81FE471A81FE051A38
:106AA4000025194603F1200477EE416A21F8025BC0
:106AB400A142FBD1F1EE005A9FEDB36AB0EE007A29
:106AC400A7EEE57A87FE067AB7EE006A87FE467A75
:106AD400B3EE025A90ED024ADFEDAD0AA3F1020EC5
:106AE400F0EE441ADFEDAB4A62EE852A023A67EE15
:106AF400A47AA94BD6EE871ADDF858C0BDEEE25A47
:106B0400DFEDA65A22EE207ADFEDA56AFCEEE77AE5
:106B1400016815EE104AB8EEC55ABCEEC77A059264
:106B240004EB442661EEA51AB0EE462AF146B600FF
:106B340017EE104A63EEA63A0890A4B206F60407CC
:106B44001E4432EEC55A01941F441446B0F9043071
:106B54000CF14002884603936546924B17EE900A67
:106B6400DFED912A0491CDED027ACDE906CE964669
:106B740034F8022F8044019934EE214A08EB024292
:106B840095ED006A39F802CF120C01FB02F282F390
:106B94001802C2F3C831C2F30E0203EB810A33F8C0
:106BA4002110BAF902A0A1F500410AFB02F201EB9F
:106BB400E23189B2CA09490607EE101A511C920043
:106BC4008900B8EE477A06EB020B3A4406EB010A59
:106BD4003944D2ED006A27EE227ADBED007ADAED51
:106BE400004AD1ED005A74EEE74A75EEE65AE7EE34
:106BF400247AE7EE256A76EEE76AE5EE267AF0EE89
:106C0400466A67EE847A37EE827AE3EE276A67EEA5
:106C1400237AFCEEE77A17EE902A6244A9F8002062
:106C2400E5EC016AAE45A3D1169AF1EE006A089824
:106C3400F0EE007A02F104090299049A039CA5EB90
:106C440009090A4490ED097A84804FEA9904E7EE31
:106C5400667A80ED024A04FB0122DFED4B6A04945C
:106C6400C0ED031A0260DDE906CEC7FEA67A87FEF0
:106C7400C22ADFED487AF7EE001A90ED064A27EEB5
:106C8400277A0269F0EE442ADFED447AB0F9141051
:106C9400BCEEC77A0690D1EE022A05989FED422AEF
:106CA40017EE109A02914A4462EEA72A9046039284
:106CB40030F8022F34EE224A019908EB02429CED8F
:106CC400006A3EF8024FC844120C01FB02F282F340
:106CD4001802C2F3C831C2F30E0203EB810A33F87F
:106CE4002110BAF902A0A1F500410AFB02F201EB5E
:106CF400E23189B2CA09490607EE101A511C920002
:106D04008900B8EE477A06EB020B3A4406EB010A17
:106D14003944D2ED006A27EE027ADBED007ADAED2F
:106D2400004AD1ED005A74EEE74A75EEE65AE7EEF2
:106D3400247AE7EE256A76EEE76AE5EE267AF0EE47
:106D4400466A67EE847A37EEA17AE7EE836A67EEE5
:106D5400237AFCEEE77A17EE902A2244AEF800205C
:106D6400ECEC016AAC45A3D10698DDE9032380ED80
:106D7400064A03FB0922029BC0ED072A83820261B3
:106D84000DB0BDE8F08F00BF00000000CDCCCC3DBD
:106D9400000080430000804FD02000200000803D90
:106DA40000008047CC1800200000802FD0ED0A6A34
:106DB400B7EE007AD0ED095A002931EE661AD0ED0B
:106DC400087A9FEDBE5AF0EE004A9FEDBD6A70EE60
:106DD400E50AB0EE474A06FE056A30EE670AE6EEBB
:106DE400016AA1EEE44AE6EE205AE6EE007A2DE9C5
:106DF400F04F76EEE11A8BB0C0ED0A6AC0ED095A85
:106E0400C1EE844AC0ED087AC4FEC74AC4FE854A6E
:106E14000025194603F1200477EE646A21F8025B29
:106E2400A142FBD1F1EE005A9FEDA46AB0EE007AC4
:106E3400A7EEE57A87FE067AF7EE005A87FE657AB2
:106E440090ED026AA3F1020C9FED9E4A023ADFED37
:106E54009E1AB0EE465A62EE842A036822EE212A74
:106E6400149E96EE875ADFED996AFCEEE22A9FEDB6
:106E7400987ABCEEC22A019367EEA67A984612EE7F
:106E8400904AB0F9043012EE101A9246FCEEE77AFA
:106E94001FFA84FE89B206F1400425EE075A0293D4
:106EA40063EE843A35460496E14605920E46069012
:106EB40017EE902A874F2046874B9FED884A03910F
:106EC400CDED007A3AF8021F904436EE056A08EBDD
:106ED4000141090C06FB01F181F31801C1F3C83427
:106EE400C1F30E0107EB840B37F82440BBF902B061
:106EF4000BFB01F104EBE13109B281EAE1740029F1
:106F0400A4EBE1744FEA4404A4B20EFB04F44FEA88
:106F1400945B4FEA842407EE904A03EB8B04F8EE6B
:106F2400677A94ED007AD4ED016A39F8024F67EE7E
:106F3400847A76EEC76AA7EEA67AD5ED006AD8BF42
:106F4400B1EE477A67EE067A37EEA57AE3EE276A62
:106F540067EE237AFCEEE77A17EE901A2144A9F83B
:106F64000010E5EC016AA842ACD11499F1EE006A74
:106F74000698F0EE007A01F104080199009C894614
:106F8400A5EB08080299A14490ED097A81804FEAA3
:106F94009801E7EE667A80ED026A029101FB0491A2
:106FA400DFED466A80ED035A0160DDE90462C7FE45
:106FB400A67AC7FEE55ADFED457AB7EE004A90EDB2
:106FC400066A27EE277A0169F0EE467AB0F9144092
:106FD4009FED425ABCEEC77ADDF80CA0D4EEA57A38
:106FE400009417EE108A4144F0EE675ADFED387AC8
:106FF4008946019165EEA75A32F8024F36EE256AAA
:1070040009EB0444C144240C0AFB04F484F318047B
:10701400C4F3C831C4F30E0407EB810B37F8211015
:10702400BBF902B00BFB04F401EBE43424B284EAB0
:10703400E471002CA1EBE4714FEA410189B20EFB2B
:1070440001F14FEA915B4FEA812107EE901A03EBBD
:107054008B01F8EE677A91ED007AD1ED016A3CF884
:10706400021F67EE857A76EEC76AA7EEA67AD6ED9A
:10707400006AD8BFB1EE477A67EE067A37EE847AB3
:10708400E7EE836A67EE237AFCEEE77A17EE904A1E
:107094000C44ACF80040E6EC016AAE42ACD180EDA1
:1070A400066AC0ED075ADDE9012303FB0821009BB2
:1070B400016183820BB0BDE8F08F00BF00000000C7
:1070C400CDCCCC3D00008047000080430000804FC1
:1070D4000000803DCC1800202CC800080000802F40
:1070E40090ED0A7AB7EE006AD0ED094A002931EE34
:1070F400471AD0ED087A9FEDD54AF0EE006ADFED2D
:10710400D45A70EEE40AB0EE465A45FE845A30EE84
:10711400670AA5EE817AA1EEE65AE5EEA04AE5EE0D
:10712400807A2DE9F04F77EE611A8DB080ED0A7AFE
:10713400C0ED094A81EE851AC0ED087A81FE461A2F
:1071440081FE041A0025194603F1200436EE416A33
:1071540021F8025BA142FBD1F1EE005ADFEDBB6ADC
:10716400B0EE007AA7EEE57A87FE267AF7EE004ABB
:1071740087FE647AB1EE0C5ADFEDB65A90ED024AFE
:107184009C1E62EE256A9FEDB42A62EE852A911E4A
:10719400F0EE441A026867EE827ADDF858C0BDEE5C
:1071A400E25AAE4FD6EE071A0392BCEEE67A9FED92
:1071B400AC6A15EE105AFCEEE77AB8EEC55A05949F
:1071C40017EE103A05EBC506B0EE642AA1469BB251
:1071D40063EEA53AB60061EE861A1D0432EEC55A76
:1071E4005B100C4602EB050806F1240200933E44B2
:1071F40017EE903A17446246049598446546403227
:10720400B0F90430DFF860E2DFED962A0691CDEDA7
:10721400017A0292CDE907C034F8022F34EE214AF4
:10722400009908EB024295ED006A03FB01F1A3EB20
:10723400A30339F802CF02EB810201984FEAD25B33
:10724400C2F30E2280440EEB8B0A3EF82B10BAF9DF
:1072540002A00AFB02F201EBE23189B281F4004A96
:1072640041F38D014FEA5A320B444FEACA411BB233
:1072740007EE101A511C92008900B8EE477A06EB0B
:10728400020B3A4406EB010A3944D2ED006A27EEB8
:10729400227ADBED007ADAED004AD1ED005A74EE81
:1072A400E74A75EEE65AE7EE247AE7EE256A76EECB
:1072B400E76AE5EE267AF0EE466A67EE847A37EE00
:1072C400827AE7EE836A67EE237AFCEEE77A17EEBA
:1072D400902A6244A9F80020029AE5EC016AAA42C5
:1072E4009AD1169AF1EE006A0399F0EE007A04320C
:1072F400019C8846AA1AA044DDE907C0838093084C
:1073040090ED097A03FB0481E7EE667A039380ED3E
:10731400024AC0ED031ADFED4D6A0160C7FEA67A8A
:1073240087FEC22A90ED064AF7EE001ADFED4A7A8C
:10733400F0EE442A036927EE277A049ADFED487AAF
:10734400D1EE022A1A44BCEEC77A02939046B0F9F1
:107354001430049017EE109A9FED422A069C62EEB8
:10736400A72AC8440598019534F8022F34EE224A1E
:10737400009908EB02429CED006A03FB01F1A3EBC8
:10738400A30330F8025FC84402EB81024FEAD25BE8
:10739400C2F30E220EEB8B0A3EF82B10BAF902A0B0
:1073A4000AFB02F201EBE23189B281F4004A41F3B3
:1073B4008D014FEA5A320B444FEACA411BB207EE21
:1073C400101A511C92008900B8EE477A06EB020BA2
:1073D4003A4406EB010A3944D2ED006A27EE027AF8
:1073E400DBED007ADAED004AD1ED005A74EEE74A9B
:1073F40075EEE65AE7EE247AE7EE256A76EEE76A5A
:10740400E5EE267AF0EE466A67EE847A37EEA17AE4
:10741400E7EE836A67EE237AFCEEE77A17EE902AAA
:107424002A440280019AECEC016A94459CD10498A8
:10743400029A83824A44039B80ED064A03FB092295
:10744400C0ED072A02610DB0BDE8F08F0000000016
:10745400CDCCCC3D000080470000804F30D80008E0
:107464000000803D0000802FCC18002090ED0A7AA7
:10747400B7EE006AD0ED094A002931EE471AD0ED83
:10748400087A9FEDD54AF0EE006ADFEDD45A70EE2B
:10749400E40AB0EE465A45FE845A30EE670AA5EE79
:1074A400817AA1EEE65AE5EEA04AE5EE807A2DE96E
:1074B400F04F77EE611A8DB080ED0A7AC0ED094A7B
:1074C40081EE851AC0ED087A81FE461A81FE041AFF
:1074D4000025194603F1200436EE416A21F8025BC7
:1074E400A142FBD1F1EE005ADFEDBB6AB0EE007AA7
:1074F400A7EEE57A87FE267AF7EE004A87FE647ADD
:10750400B3EE025ADFEDB65A90ED024A9D1E62EECA
:10751400256A9FEDB42A62EE852A0468F0EE441AC7
:10752400911E67EE827AB04ABDEEE25ADDF858C089
:10753400D6EE071A9FEDAD6ABCEEE67A039415EE1B
:10754400106AFCEEE77AB8EEC55A059517EE103AC4
:1075540006EB4626B0EE642AA9469BB263EEA53A32
:10756400B60061EE861A1F0432EEC55A5B106546FA
:1075740004EB0708049706F604070093164417EE75
:10758400903A1744624698440C464032B0F90430AD
:10759400DFF860E2DFED962A0691CDED017A0292E2
:1075A400CDE907C034F8022F34EE214A009908EBE4
:1075B400024295ED006A03FB01F1A3EBA30339F842
:1075C40002CF02EB810201984FEAD25BC2F30E2292
:1075D40080440EEB8B0A3EF82B10BAF902A00AFB8A
:1075E40002F201EBE23189B281F4004A41F38D01E8
:1075F4004FEADA120B444FEA4A611BB207EE101A43
:10760400511C92008900B8EE477A06EB020B3A440B
:1076140006EB010A3944D2ED006A27EE227ADBED4B
:10762400007ADAED004AD1ED005A74EEE74A75EEBD
:10763400E65AE7EE247AE7EE256A76EEE76AE5EEA7
:10764400267AF0EE466A67EE847A37EE827AE7EEBF
:10765400836A67EE237AFCEEE77A17EE902A624497
:10766400A9F80020029AE5EC016AAA429AD1169A76
:10767400F1EE006A0399F0EE007A0432019C884628
:10768400AA1AA044DDE907C08380930890ED097A23
:1076940003FB0481E7EE667A039380ED024AC0EDB2
:1076A400031ADFED4D6A0160C7FEA67A87FEC22A7F
:1076B40090ED064AF7EE001ADFED4A7AF0EE442A1E
:1076C400036927EE277A049ADFED487AD1EE022A7D
:1076D4001A44BCEEC77A02939046B0F91430049071
:1076E40017EE109A9FED422A069C62EEA72AC84420
:1076F4000598019534F8022F34EE224A009908EBDC
:1077040002429CED006A03FB01F1A3EBA30330F8F2
:10771400025FC84402EB81024FEAD25BC2F30E223D
:107724000EEB8B0A3EF82B10BAF902A00AFB02F208
:1077340001EBE23189B281F4004A41F38D014FEA51
:10774400DA120B444FEA4A611BB207EE101A511CBD
:1077540092008900B8EE477A06EB020B3A4406EB36
:10776400010A3944D2ED006A27EE027ADBED007A91
:10777400DAED004AD1ED005A74EEE74A75EEE65AA6
:10778400E7EE247AE7EE256A76EEE76AE5EE267AF6
:10779400F0EE466A67EE847A37EEA17AE7EE836A02
:1077A40067EE237AFCEEE77A17EE902A2A440280E9
:1077B400019AECEC016A94459CD10498029A838264
:1077C4004A44039B80ED064A03FB0922C0ED072AC5
:1077D40002610DB0BDE8F08F00000000CDCCCC3DBF
:1077E400000080470000804FD02000200000803D32
:1077F4000000802FCC180020D0ED0A6AB7EE007A82
:10780400D0ED095A002931EE661AD0ED087A9FEDC1
:10781400CA5AF0EE004A9FEDC96A70EEE50AB0EE6E
:10782400474A06FE056A30EE670AE6EE016AA1EEF3
:10783400E44AE6EE205AE6EE007A2DE9F04F76EEC1
:10784400E11A8FB0C0ED0A6AC0ED095AC1EE844A4C
:10785400C0ED087AC4FEC74AC4FE854A002519460D
:1078640003F1200477EE646A21F8025BA142FBD1A4
:10787400F1EE005A9FEDB06AB0EE007AA7EEE57A19
:1078840087FE067AF7EE005A87FE657A9FEDAC4ACA
:10789400A3F1020C90ED026A023A22EE042ADFED13
:1078A400A91A62EE842A0168B0EE465A189EBCEE0C
:1078B400C22A069167EEA17AE14696EE875A9FEDB9
:1078C400A27A12EE103AFCEEE22AFCEEE77A964631
:1078D4009BB263EE843AB0F904A035461C040796C3
:1078E4005B1025EE075A04EB01080594344612EEAA
:1078F400901A0293403489B2CDF820C0039417EE55
:10790400904A09920E460A90A044904F17EE902A8E
:107914008F4B9FED904ADDF808C00398CDED017AB6
:1079240004913EF8021F0AFB0CF436EE056AAAEB3A
:10793400AA0A08EB0141904401EB8401CC0DC1F388
:107944000E2107EB840B37F82440BBF902B00BFB84
:1079540001F104EBE13424B284EAE471002C0AEB73
:10796400A40AA1EBE47139F8024F0FFA8AFA4FEA3C
:10797400410189B206FB01F14FEA915B4FEA812193
:1079840007EE901A03EB8B01F8EE677A91ED007A1B
:10799400D1ED016A67EE847A76EEC76AA7EEA67A1D
:1079A400D5ED006AD8BFB1EE477A67EE067A37EEB6
:1079B400A57AE7EE836A67EE237AFCEEE77A17EEA0
:1079C400901A2144A9F80010E5EC016AA842A8D154
:1079D4001899F1EE006A069CF0EE007A0431A6468E
:1079E400019C691AA6448908744603910199DDE94A
:1079F40009208E46039990ED097A01FB0E44E7EEC7
:107A0400667AA0F804A080ED026A80ED035ADFEDE7
:107A14004A6A0460DDE9076CC7FEA67AC7FEE55A28
:107A240090ED066AB7EE004ADFED467AF0EE466A5C
:107A3400016927EE277A059CDFED437AD4EEA56A27
:107A44000C44BCEEC77AB0F91490A6469FED415A97
:107A5400029C17EE108A0290049866EEA75AC64458
:107A6400019132F8021F09FB04FA36EE256AA9EBEC
:107A7400A9090EEB0141C64401EB8A014FEAD15A30
:107A8400C1F30E2107EB8A0B37F82AA0BBF902B029
:107A94000BFB01F10AEBE13A0FFA8AFA8AEAEA717E
:107AA400BAF1000F09EBAA09A1EBEA710FFA89F9FF
:107AB4004FEA410189B200FB01F14FEA915B4FEAC1
:107AC400812107EE901A03EB8B01F8EE677A91EDB2
:107AD400007AD1ED016A3CF8021F67EE857A76EEF2
:107AE400C76AA7EEA67AD6ED006AD8BFB1EE477A88
:107AF40066EE077A37EE847AE7EE836A67EE237AD6
:107B0400FCEEE77A17EE90AA8A44ACF800A0E6EC03
:107B1400016AAE42A5D1039ADDE901304344A0F8DD
:107B2400149080ED066A02FB0833C0ED075A036126
:107B34000FB0BDE8F08F00BF00000000CDCCCC3DFD
:107B4400000080470000804F0000803DCC180020DA
:107B54002CC800080000802F012A05D0022A01D178
:107B64000B6803600020704701600020704700BF6D
:107B74000368D3F880200132504230B40D784C6849
:107B840002F00F01C3F8802000F00F0258BF5142E9
:107B940003EBC10203F831505460D3F8842001325E
:107BA40030BCC3F884207047904B41F2482041F226
:107BB40050221B682DE9F04F8D4D41F24C241E5884
:107BC40041F2552E29681C5901319A5C344441F222
:107BD4005126296041F252211C504FEA440CB4F161
:107BE400004F41F2562413F806A041F2572013F82F
:107BF40001B041F258261D5D4FEA62011F5C4FEA55
:107C04006B049E5D4FEA6A00C1EB550188BFCCF15D
:107C1400000CC4EB560441F25325C0EB570041F26B
:107C24005C2649B213F805904FEA5C6C41F2542784
:107C340064B29D5B40B213F80E80490013F807E06C
:107C440064006C4F11FB0CF1400014FB0CF410FBAE
:107C54000CF002EBD1120BEBD41441F25A2C0AEBC8
:107C6400D01102F0FF0204F0FF004FEA652A4FEA48
:107C7400620B01F0FF014410CBEB59094FEA610B91
:107C8400C4EB5808CBEB5E0E4FEA4A0A4FFA89F967
:107C94004FFA88F819FB0AF94FFA8EFE18FB0AF816
:107CA4001EFB0AFE02EBD91200EBD81001EBDE1129
:107CB40002F0FF0200F0FF0001F0FF017A63B863F5
:107CC400F96333F80C20954201D9AD1A9D5303F59D
:107CD400935441F2642241F2682641F269212568F5
:107CE40041F26A209A5841F26D2913F806B041F224
:107CF40070262A44595C185C41F26F2522604FEAD1
:107D0400420EB2F1004F41F26E224FEA6B049F5DC6
:107D14009A5C4FEA600C5E5D4FEA6105C4EB520465
:107D240088BFCEF1000ECCEB570C41F26B22C5EBB1
:107D3400560541F2742764B213F802A04FEA5E6E4E
:107D440041F26C286DB2DE5B4FFA8CFC13F809909B
:107D5400640013F808806A00274D14FB0EF44FEA00
:107D64004C0C12FB0EF21CFB0EFC0BEBD41401EBBF
:107D7400D21141F2722E04F0FF0200EBDC1001F08C
:107D8400FF014FEA662C4FEA620B00F0FF004FEA56
:107D94004C0C4410CBEB5A0A4FEA610BC4EB590963
:107DA400CBEB58084FFA8AFA4FFA89F91AFB0CFA06
:107DB4004FFA88F819FB0CF918FB0CF802EBDA12ED
:107DC40000EBD91001EBD81102F0FF0200F0FF0024
:107DD40001F0FF016A63A863E96333F80E20964259
:107DE40001D9B61ADE53BDE8F08F00BF98D2002047
:107DF400A4D200200004004000000140224B234A8A
:107E04001B691269C3F38023C2F3C03210B543EA7D
:107E14004203047986B043EA8403DBB2D52B0371B1
:107E240015D07F2B05D0BF2B03D0EA2B1DD006B075
:107E340010BD082003228B688DF8080003922BB133
:107E4400CB68084602A9984706B010BDFEE7082093
:107E540001228B688DF8000001922BB1CB68084693
:107E64006946984706B010BDFEE7082002228B68D9
:107E74008DF8100005922BB1CB68084604A99847E9
:107E840006B010BDFEE700BF00080240000002403B
:107E9400214A13691269C3F3C033C2F3803210B5A7
:107EA40043EA4203047986B043EA8403DBB2D52B68
:107EB400037115D07F2B05D0BF2B03D0EA2B1DD027
:107EC40006B010BD072003228B688DF808000392CA
:107ED4002BB1CB68084602A9984706B010BDFEE74F
:107EE400072001228B688DF8000001922BB1CB682A
:107EF40008466946984706B010BDFEE707200222EF
:107F04008B688DF8100005922BB1CB68084604A944
:107F1400984706B010BDFEE7000C0240214A1369E1
:107F24001269C3F3C033C2F3803210B543EA42038B
:107F3400047986B043EA8403DBB2D52B037115D0F0
:107F44007F2B05D0BF2B03D0EA2B1DD006B010BD6C
:107F5400062003228B688DF8080003922BB1CB68AE
:107F6400084602A9984706B010BDFEE70620012284
:107F74008B688DF8000001922BB1CB6808466946E6
:107F8400984706B010BDFEE7062002228B688DF8E4
:107F9400100005922BB1CB68084604A9984706B097
:107FA40010BDFEE700100240214A13691269C3F3B1
:107FB400C023C2F3802210B543EA4203047986B099
:107FC40043EA8403DBB2D52B037115D07F2B05D094
:107FD400BF2B03D0EA2B1DD006B010BD0520032211
:107FE4008B688DF8080003922BB1CB68084602A970
:107FF400984706B010BDFEE7052001228B688DF876
:10800400000001922BB1CB6808466946984706B038
:1080140010BDFEE7052002228B688DF81000059242
:108024002BB1CB68084604A9984706B010BDFEE7FB
:1080340000040240814A13691269C3F3C023C2F3E6
:10804400802230B543EA42030C46017B99B00546D1
:1080540043EA8103DBB2D52B03735DD07F2B4ED073
:10806400BF2B4CD0EA2B00F0B480754A297D1369EC
:108074001269C3F3C033C2F3803243EA420343EAD2
:108084008103DBB2D52B2B756DD07F2B5ED0BF2B3C
:108094005CD0EA2B00F0AA806A4A297F136912692E
:1080A400C3F3C033C2F3803243EA420343EA810399
:1080B400DBB2D52B2B773CD07F2B61D0BF2B5FD08D
:1080C400EA2B00F0AE80604B604A1B691269C3F36F
:1080D400802395F82410C2F3C03243EA420343EAF2
:1080E4008103DBB2D52B85F8243064D07F2B54D0A8
:1080F400BF2B52D0EA2B00F0868019B030BD052189
:108104000322A3688DF830100D9223B1E3680CA903
:1081140020469847A9E7FEE705210122A3688DF8C8
:1081240038100F9223B1E3680EA9204698479CE7C4
:10813400FEE707210122A3688DF81810079223B1E6
:10814400E36806A920469847BDE7FEE70621032217
:10815400A3688DF82010099223B1E36808A920468A
:10816400984799E7FEE706210122A3688DF82810B5
:108174000B9223B1E3680AA9204698478CE7FEE7EF
:1081840007210322A3688DF81010059223B1E36838
:1081940004A92046984796E7FEE708210322A3682E
:1081A4008DF8001001922BB1E36820466946984788
:1081B40019B030BDFEE708210122A3688DF808102C
:1081C40003922BB1E368204602A9984719B030BD49
:1081D400FEE705210222A3688DF84010119223B115
:1081E400E36810A9204698473FE7FEE706210222EC
:1081F400A3688DF84810139223B1E36812A92046AE
:10820400984749E7FEE708210222A3688DF8581031
:1082140017922BB1E368204616A9984719B030BDD0
:10822400FEE707210222A3688DF85010159223B1AE
:10823400E36814A92046984745E7FEE70004024096
:1082440000100240000C02400008024000000240FE
:108254002C4A136983F4807330B5C3F300230446B6
:1082640000790D46A17989B043EA4003DBB223715A
:10827400802B1269C2F3402242EA4102D2B2A271B7
:1082840031D07F2B13D0802A1FD07F2A01D009B090
:1082940030BD04210122AB688DF8181007922BB170
:1082A400EB68284606A9984709B030BDFEE70421CB
:1082B4000022AB688DF8081003929BB1EB6802A909
:1082C40028469847A279802ADFD103210122AB688E
:1082D4008DF810100592A3B1EB68284604A99847BD
:1082E40009B030BDFEE703210022AB688DF8001011
:1082F40001922BB1EB68694628469847A279C2E7F8
:10830400FEE7FEE7000402402B4A2C4B126930B50D
:10831400C2F34022044600790D46617989B042EAED
:108324004002D2B22271802A1B69C3F3C02343EAFC
:108334004103DBB2637130D07F2A12D0802B1ED070
:108344007F2B01D009B030BD0123AA688DF8183005
:1083540007932AB1EB68284606A9984709B030BDAF
:10836400FEE701210022AB688DF8081003929BB14F
:10837400EB6802A9284698476379802BE0D1002155
:108384000122AB688DF8101005929BB1EB6828466A
:1083940004A9984709B030BDFEE70023AA688DF808
:1083A400003001932AB1EB686946284698476379FF
:1083B400C4E7FEE7FEE700BF0008024000000240F9
:1083C400FEE700BFF0B4046A8D6824F480740E687C
:1083D400144A0462036A446823F40073C76943EAD5
:1083E4000523114D3A40A84242EA06020AD005F597
:1083F4008065A84206D049684460C261C1630362D3
:10840400F0BC704723F40063CF684D6924F44054F2
:108414008E6943EA0723354323F4806344EA051451
:10842400E9E700BF8CFFFEFF00000140F0B4046ADE
:108434008D6824F010040E68144A0462036A4468C8
:1084440023F02003876943EA0513114D3A40A842FB
:1084540042EA06220AD005F58065A84206D049689A
:108464004460826181630362F0BC704723F080033F
:10847400CF684D6924F440648E6943EA0713354399
:1084840023F0400344EA8504E9E700BFFF8CFFFEC4
:1084940000000140F0B4046A8D6824F001040E6801
:1084A400124A0462036A446823F0020387692B4377
:1084B4000F4D3A40A84242EA06020AD005F580650B
:1084C400A84206D049684460826141630362F0BCFB
:1084D400704723F00803CF684D6924F440748E6913
:1084E4003B43354323F004032C43EBE78CFFFEFFAF
:1084F40000000140F0B4314EB0F1804F304FA0EB9A
:1085040006060368A0EB0707B6FA86F6B7FA87F7FC
:108514004FEA56164FEA571725D026BB294A9042F0
:108524003BD002F58062904237D002F580629042DF
:1085340038D0002F36D1244A904218D002F58062F8
:10854400904214D002F58062904210D0A2F5983285
:1085540090420CD002F58062904208D002F580620D
:10856400904208D103E023F070034D682B4323F4B9
:108574004073CD682B434A6923F080038C6813430E
:108584000A680360C462826226B91FB90123F0BC81
:10859400436170470B690363F8E723F070034A688B
:1085A4001343E4E7094A23F070034C68904243EA1A
:1085B4000403DCD0002FDAD1BDE700BF0000014086
:1085C400000401400004004000400140000C004051
:1085D40003680122186A02FA01F120EA010010B4CA
:1085E40018620F4C1A6AA34241EA0201196212D0BE
:1085F4000C4A93420FD099680B4A0A40062A06D0C7
:10860400B2F5803F03D01A6842F001021A600020DC
:108614005DF8044B70475A6C42F400425A64EAE72E
:10862400000001400004014007000100836B402268
:108634001A645A6C42F004025A647047704700BFCF
:10864400836B1A6C12F0500F1A6C20D142F4007232
:1086540019681A648A6812F0405F1AD19A69C2B91B
:10866400CA6A12F4700F02D08A68500511D44A689D
:1086740022F020024A601A6C22F480721A641A6C86
:10868400D10406D41A6C42F001021A647047D2066F
:1086940000D570479B6BDB6C184700BFF0B590F8B2
:1086A4003C3083B00022012B019200F09A80012219
:1086B400036880F83C200D688A68092DAFB228D879
:1086C40005EB45064FF0070C1C690CFA06FC02FA90
:1086D40006F624EA0C041C611A6916431E614E68EE
:1086E400062E06EB86022DD8053A1F24596B9440BA
:1086F40007FA02F221EA04015963596B0A435A63E7
:108704003C4A934230D0002380F83C30184603B0F2
:10871400F0BD07EB47064FF0070CDC681E3EDFF8A0
:10872400D8E00CFA06FC754524EA0C04DC605BD046
:1087340002FA06F6DA681643DE604E68062E06EB89
:108744008602D1D90C2E37D8A2F123041F26196B27
:10875400A64007FA04F221EA060119631C6B1443CC
:10876400244A93421C63CED1122D33D0224B9D4216
:1087740001D0112DC7D1214A1F4953688D4243F4BA
:1087840000035360BFD102F146721D4B02F52E3235
:108794001B6802F28332A2FB03239B0C03EB8303CB
:1087A4005B000193019B002BADD0019B013B019326
:1087B400019B002BF9D1A6E7A2F141011F26DC6A37
:1087C4008E4007FA01F224EA0604DC62D96A0A43FD
:1087D400DA6295E7D2F8043343F48003C2F8043331
:1087E40091E7022003B0F0BDDE6846EA0266DE606F
:1087F40075E700BF00200140120000100023014073
:1088040000000020816BD1F88030CA6E43F08003F1
:10881400C1F88030536D012B04D00B6F5B6D012BBD
:1088240000D070470868134B02681B6822F40032BA
:1088340010B4114C0260A4FB034302681B0B22F426
:1088440080329B00026002E00268D20308D513F173
:10885400FF33F9D2D1F8803043F04003C1F88030BF
:108864000122002381F87D20A1F86A305DF8044BD1
:10887400704700BF000000201BECCB95704700BF81
:1088840003681B6813F480731ED1826B116810B4E3
:108894000868146B20F40030A2F86A30082C53687E
:1088A400086012D00120023B0124012B0B6994BF04
:1088B40040F0600040F0040023EA00030B6182F8FA
:1088C4007D405DF8044B7047704723F00200012897
:1088D4000CBF11200120E6E7F0B490F83440012CDD
:1088E40038D0012590F83540866DAC4280F834507C
:1088F40029D104680227002580F83570456587680A
:108904002568402F25F480252560636026D0A1606A
:10891400E260C16D3F23026C8B40B360236843F077
:1089240016032360636943F0800363611AB123680B
:1089340043F0080323602268002342F00102184632
:108944002260F0BC70470022022380F834201846CD
:10895400F0BC70470223F0BC18467047A260E16087
:10896400D7E700BFF0B590F83C3083B00024012B6A
:10897400019400F085800123056880F83C30AB68E1
:10898400DF0714D4404B414E1C68AB68A6FB04645B
:1089940043F00103A40CAB6004EB44040194019B79
:1089A4002BB1019C013C0194019C002CF9D1AB68D2
:1089B400DE073BD5036C364C1C4044F480740464DD
:1089C4006B685C0505D5036C23F4405343F4805372
:1089D4000364036C13F480533ED0436C23F006030A
:1089E400436404460027806B13462A4E0A4684F8E3
:1089F4003C706FF02201C663274F284E0764C6649B
:108A0400296005F14C016E6846F080666E60AE68C0
:108A140046F48076AE60FFF75FFF214B5A68D206BA
:108A240007D12368986810F0405017D0002003B095
:108A3400F0BD22681B498A4216D05B68DB06F5D478
:108A440019498A42F2D1886810F04050EED18B68FF
:108A540043F080438B60EAE74364C2E79A6842F0DC
:108A640080429A6003B0F0BD936813F0405F03D175
:108A7400936843F080439360094B00205B68D6E71A
:108A8400022003B0F0BD00BF0000002083DE1B43C2
:108A9400FEF8FFFF4586000841860008318600087D
:108AA400002301400020014000220140F0B5E14EC6
:108AB4000446DFEDE16A0D467388D0ED047A9FED3C
:108AC400DF7A2DED028B08EE103AA3B0B8EE488A97
:108AD40028EE268A78EE677AF0EEE77AF4EEC77A23
:108AE400F1EE10FA0EDD80ED048A09210122AB6853
:108AF4008DF810100592002B00F06782EB6804A932
:108B0400284698479FEDD56AC8FE067AB7EE007AE4
:108B1400C7FEC77A94ED037ADFEDC86A77EEC77AA9
:108B2400DFEDC75AB0EEE75AA7EE857A77EE667A9C
:108B340084ED037A67EEA57AC7FE867AF38967EE39
:108B4400A77A9FEDBD6A08EE103A94ED107A67EEAD
:108B5400A77AD4F82021B8EE488AC2ED057A28EE27
:108B6400068A78EE477AF0EEE77AF4EEE67AF1EEEA
:108B740010FA10DD84ED108A09210722AB688DF804
:108B840018100792002B00F02182EB6806A92846F2
:108B94009847D4F82021738B9FEDAF7AA3F5004357
:108BA400DFEDAE6A1BB207EE903AF8EEE77AA7EE75
:108BB400C78AC8FE267AB7EE006AC7FEC67A94ED65
:108BC4000F7ADFED9E5A77EEC77A9FEDA55AF0EE45
:108BD400E74AA7EEA47AF0EE477A37EE657AC4ED59
:108BE4000F7A27EE057A87FE467A87FE267AB0EE5C
:108BF400006A338AFFEE006ADFED927AF1EE004AF2
:108C040008EE103A9FED8C4AE7EE066A9FED8E5A05
:108C1400B8EE488A94ED167A8C4F28EE048A26EE34
:108C2400A66A38EE477A26EE246AB0EEC77AE6EEF4
:108C3400867AB4EEE57AF1EE10FA67EE857AFCEE08
:108C4400E77A17EE903AC3F3493157F8211061F3EC
:108C54001603536010DD84ED168A09210822AB68DF
:108C64008DF820100992002B00F0B181EB6808A95F
:108C740028469847D4F82021338B9FED777AA3F5C3
:108C840000439FED766A1BB207EE903AF8EEE77A5E
:108C9400A7EEC78A88FE067AF7EE005A87FE657A41
:108CA400D4ED156ADFED657A37EE667A9FED6C5A7E
:108CB400F0EEC74AE7EE246A76EEE77AC4ED156A69
:108CC40067EE857AC7FEE57AC7FE867A92F8283081
:108CD400002B40F07D8167EEA77A9FED5D7A67EE09
:108CE400877A33889FED546A08EE103A94ED0A7A35
:108CF400C2ED0B7AB8EE488ADFED506A28EE068A98
:108D040078EE477AF0EEE77AF4EEE67AF1EE10FACE
:108D140010DD84ED0A8A09210022AB688DF8281041
:108D24000B92002B00F06181EB680AA92846984752
:108D3400D4F82021B38A9FED487AA3F50043DFEDF0
:108D4400476A1BB207EE903AF8EEE77AA7EEC78AB5
:108D5400C8FE267AB7EE006AC7FEC67A94ED097A91
:108D6400DFED365A77EEC77A9FED3D5AF0EEE74ACB
:108D7400A7EEA47A77EE657A84ED097A67EE857AB0
:108D8400C7FEC67AC7FEA67A92F830303BB967EEC2
:108D9400A77A9FED307AE7EE875AF0EE657AB388CA
:108DA4009FED256A08EE103A94ED267AC2ED0D7A0D
:108DB400B8EE488ADFED216A28EE068A78EE477A13
:108DC400F0EEE77AF4EEE67AF1EE10FA10DD84EDD7
:108DD400268A09210222AB688DF830100D92002BEF
:108DE40000F00481EB680CA928469847D4F82021A8
:108DF400F38AF18B9FED187A0B449FED186A5B0898
:108E0400A3F500431BB207EE903AF8EEE77AA7EE1B
:108E1400C78AC8FE067AF7EE005AC7FEE57AD4ED93
:108E2400256A9FED067A77EEE67A9FED0D5AF0EE0D
:108E3400E74A1FE0B0C10020800080370AD7233CF6
:108E4400FD4A813F0000FE420000004B90C200201A
:108E54003333333F6666663F00010038000000008C
:108E6400BC9C823F800080370AD7233C000090429C
:108E7400000010C2E7EEA46A76EEC77AC4ED256A54
:108E840067EE857AC7FEE57AC7FE867A92ED007AA8
:108E9400B1EE006A137EF8EEC76A86EE267A67EEB4
:108EA400277A002B40F0A5801FED167A67EE877AAB
:108EB400B3891FED146A08EE103A94ED2C7AC2EDD2
:108EC400077AB8EE488A5FED186A28EE068A78EECB
:108ED400477AF0EEE77AF4EEE67AF1EE10FA0FDD77
:108EE40084ED2C8A09210622AB688DF838100F9284
:108EF400002B7CD0EB680EA928469847D4F8202193
:108F0400738A1FED2B7AA3F500435FED2C6A1BB225
:108F140007EE903AF8EEE77AA7EEC78AC8FE267AFB
:108F2400F7EE005AC7FEE57A94ED2B7A1FED326A0C
:108F340077EEC77A1FED365AF0EEE74AA7EEA47A29
:108F440077EE467A84ED2B7A67EE857AC7FEE57A6A
:108F5400C7FEA67A3389B2EE085A94ED1E8A06EE4D
:108F6400903A5FED405A67EE857A94ED1C7AB0EE44
:108F7400485AF8EE666AC2ED047A96EEA55AF0EE07
:108F8400C57AA5EE278A78EE477A84ED1E8AF0EE3C
:108F9400E77AF4EEC67AF1EE10FA0CDD84ED1C8A61
:108FA40009210422AB688DF85010159203B3EB68C5
:108FB40014A92846984794F87C30032B41D8DFE85D
:108FC40013F0C701C4017A012000FEE7FEE7FEE7C3
:108FD400012B00F02082022B7FF483AE67EEA77A88
:108FE400B6EE007A67EE877A7BE6FEE7FEE7FEE7F9
:108FF400FEE7012B00F00A82022B08BF67EE867A97
:1090040056E7D4ED207A94F8883038EE678AB5EEC6
:10901400C08AF1EE10FACCBF012200229A4200F07D
:10902400138200230E21042284F87C30AB688DF86F
:1090340040101192002B00F03D81EB6810A92846E6
:10904400984794ED208AB38B1FED7D7AA3F50043F6
:109054001FED7E6A1BB207EE903AF8EEE77AA7EEB0
:10906400C78AC8FE067AF7EE005AC7FEE57AD4ED41
:109074001B6A1FED837A77EEE67A1FED875AF0EECE
:10908400E74AE7EEA46A76EEC77AC4ED1B6A67EE98
:10909400857AC7FEE57AC7FE867AF2EE026AD4F8CC
:1090A4002031B6EE007A5A6AA7EEA67AFDEEC77AA8
:1090B40017EE907ABA420CD00B22AB6801978DF868
:1090C4000020002B42D0EB68694628469847D4F824
:1090D40020315F627389F6EE005A94ED328A07EE0E
:1090E400103A1FEDA06AB0EE485AD4ED307AB8EECB
:1090F400477A5FEDA36A97EE065AB0EEC56A25EE8D
:10910400257AA6EE078A78EE677A84ED328AF0EE45
:10911400E77AF4EEE67AF1EE10FA0CDD84ED308AAB
:1091240009210522AB688DF868101B926BB1EB68BE
:109134001AA92846984794F8CC30032B27D8DFE89F
:1091440013F062015F013A010600FEE7FEE7D4ED89
:10915400347A94F8D83038EE678AB5EEC08AF1EEE6
:1091640010FACCBF012200229A4200F07081002341
:109174000E21052284F8CC30AB688DF85810179274
:10918400002B00F01781EB6816A92846984794ED48
:10919400348A1FEDCA7A5FEDCA7A94F82831E8EE72
:1091A400077A002B00F0818094ED497A77EE877A74
:1091B400D4F820319FEDA98AC3ED037AF388F6EE43
:1091C400005AD4ED398A07EE103A9FEDA56AB0EE45
:1091D400685AD4ED377AB8EE477ADFEDA26A97EE93
:1091E400065AB0EEC56A25EE257AE6EE078A78EED1
:1091F400E77AC4ED398AF0EEE77AF4EEE67AF1EE36
:1092040010FA0CDDC4ED378A09210322AB688DF80E
:10921400801021925BB1EB6820A92846984794F806
:10922400E830032B23D8DFE803F0C2BF9703FEE73F
:10923400D4ED3B7A94F8F43078EEE78AF5EEC08A00
:10924400F1EE10FACCBF012200229A4200F0028112
:1092540000230E21032284F8E830AB688DF87010E7
:109264001D92002B77D0EB6828461CA99847D4EDB3
:109274003B8ADFED7D6AD4ED477A9FED787AE8EE9C
:10928400A67AC7FE877AD4F82031C3ED027A092280
:1092940076497748FFF766FB072276497648FFF759
:1092A40061FB23B0BDEC028BF0BD94ED427A84EDFA
:1092B400497A7BE7FEE7D4ED207A0D23032278EE8A
:1092C400677A8DF84830042384F87C20F5EEC07A60
:1092D4001393F1EE10FACCBF0123002384F88830F5
:1092E400AB688BB3EB6812A928469847DFED5D7A2B
:1092F400B7EE007ADFED616A78EE677A67EEA67AF8
:10930400C7FEC77A9FED557AC7FE877AF2EE026AE6
:10931400D4F82031B7EE087A1A68A7EEA67AFDEEE3
:10932400C77A17EE907ABA420BD00C22AB68039737
:109334008DF808203BB1EB6802A928469847D4F879
:1093440020311F60C6E6FEE7FEE784ED218ACDE703
:1093540084ED208A77E6FEE7D4ED3B7A03230D22E1
:1093640078EEE77A84F8E8301F938DF87820F5EEEC
:10937400C07AF1EE10FACCBF0123002384F8F43054
:10938400AB6883B1EB6828461EA998479FED3C7AE9
:10939400DFED3C7AD4F82031E8EE877A37EE888A1C
:1093A40083ED108A73E7FEE7C4ED3C8AEEE7C4ED73
:1093B4003B8A5EE7FEE7D4ED347A0D23032278EE90
:1093C400677A8DF86030052384F8CC20F5EEC07AF6
:1093D4001993F1EE10FACCBF0123002384F8D8309E
:1093E400AB6863B1EB6818A928469847B6EE007AD3
:1093F400F1EE007A38EE478A28EE278ADEE6FEE7A9
:1094040084ED358AF2E784ED348AC2E6B1EE087A57
:1094140067EE877A4CE567EEA77A9FED1B7AB1EE8B
:109424000C6ADFED1A6AA7EE867A67EE267AFCEEFE
:10943400E77A17EE903AC3F3493157F8211061F3F4
:10944400160307EE903A4CE4B0EE678AFBE5B0EE03
:10945400678A9EE6F0EE678A0BE700BF0000000013
:10946400800080370AD7233C0000F042B0C10020BE
:1094740020C10020C2C1002068C10020BC9C823FE2
:1094840000009042000010420000FE420000004B29
:109494000246022345481168F0B4002482F834409F
:1094A400046882F835300B6823F001030B6003E095
:1094B40003681B1B052B3BD80B68DD07F8D4D2E9E6
:1094C4000134D06823430F68D2E90445034323439E
:1094D400146AD2E906602B43354D33433D400343C0
:1094E400506A2343042843EA050328D00B604B69E0
:1094F40023F007031843CBB218254861103B2D48CD
:109504002D4C08400021B3FBF5F3032BE45C4FF032
:109514003F034FF0010588BF0430D465A340906534
:109524000846966DB360516582F83550F0BC7047BB
:10953400032320211846516582F83530F6E7D2E935
:109544000B50976A45EA000447F0040023430B607C
:109554004B6923F007031843002DCCD07EB1B6F538
:10956400005F16D0022F03D9032FC4D1EB01C2D55B
:10957400012340211846516582F83530D6E7012F82
:1095840003D0F3D3022FB6D1F0E7B5F1C07FB2D147
:10959400EEE7032FAFD801A353F827F07595000821
:1095A40071950008759500088F950008A4D20020D5
:1095B4003F8010E000FCFFFFD8D900082DE9F04FF0
:1095C400DFF804C283B08E460025DFF80092D1F89C
:1095D400008003E00135102D00F0B0800123AB4082
:1095E40008EA03018B42F5D1DEF8044024F01007A9
:1095F400022F40F0A680EF0805F0070A4FF00F0B8A
:10960400DEF8102000EB87074FEA8A0A3E6A0BFA5D
:109614000AFB02FA0AF24FEA450A26EA0B064FF061
:10962400030B32430BFA0AFB04F003063A626FEAB7
:109634000B02076806FA0AF617403E43066086687E
:10964400C4F3001706EA020BDEF80C60AF4006FA1A
:109654000AF646EA0B068660466826EA03031F43B9
:109664004760C668E700DEF8083002EA060203FA3B
:109674000AF343EA0203C360ACD5D9F8446025F089
:10968400030705F003030F2246F4804607F18047E1
:109694009B00C9F8446007F59C37D9F8446002FA86
:1096A40003FA06F480460196404E019AB042BA6825
:1096B40022EA0A021AD006F58066B04258D03C4E1F
:1096C400B0425AD03B4EB0425CD03B4EB0425ED02A
:1096D4003A4EB04260D03A4EB04262D0394EB042B7
:1096E4000CBF0726082606FA03F31A43BA60E603FA
:1096F400DCF800306FEA010205F1010554BF1340A4
:109704000B43A703CCF80030DCF8043054BF1340FB
:109714000B43E602CCF80430DCF8083054BF1340A5
:109724000B43A402CCF80830DCF80C3054BF1340CF
:109734000B43102DCCF80C307FF450AF03B0BDE8D0
:10974400F08F4FEA450A0322D0F800B0013F04EA43
:10975400020602FA0AF2012F6FEA020206FA0AF678
:1097640002EA0B0B46EA0B0606603FF67AAF66E7A1
:10977400012606FA03F31A43B8E7022606FA03F3AE
:109784001A43B3E7032606FA03F31A43AEE70426A3
:1097940006FA03F31A43A9E7052606FA03F31A4364
:1097A400A4E7062606FA03F31A439FE700000240E3
:1097B40000080240000C0240001002400014024065
:1097C40000180240001C0240003C014000380240E6
:1097D400134BFF22F0B5027087B01A6B00240126E8
:1097E4004FF4004742F00402054601A90D481A63EC
:1097F4001B6B049403F00403029405940093009BF0
:1098040001970396FFF7DAFE4FF4806301A9064837
:109814000193CDE90246FFF7D1FE284607B0F0BD1B
:109824000038024000000240000802400F4BFF22B3
:1098340070B5027086B0196B002204464FF440469E
:1098440041F0080101250A48196301A91B6B049220
:1098540003F00803029205920093009B019603957E
:10986400FFF7ACFE204606B070BD00BF00380240D2
:10987400000C02400F4BFF2270B5027086B0196BCA
:10988400002204464FF4404641F0100101250A48E5
:10989400196301A91B6B049203F010030292059251
:1098A4000093009B01960395FFF788FE204606B0BF
:1098B40070BD00BF00380240001002400F4BFF2271
:1098C40070B5027086B0196B002204464FF44066EE
:1098D40041F0020101250A48196301A91B6B049296
:1098E40003F00203029205920093009B01960395F4
:1098F400FFF764FE204606B070BD00BF003802408A
:10990400000402402DE9F04F1021C44C00254FF013
:10991400FF320A23C0F88010C0F884200122C0F866
:109924008830834680F8C050B1B080F8C1504FF4FD
:10993400E061236B30AFBA4802261343DFF8188383
:10994400CBF8C4002363236BB64813400C930C9BE1
:10995400236B43F004032363236B47F85C1D3946F0
:1099640003F004031B921D920B930B9B04971A960E
:109974001C96FFF723FE4FF4E0733946AA48199367
:109984001D96FFF71BFE636C4FF48072C8F8F45207
:1099940043F00103A5496364636CC8F8005303F002
:1099A4000103C8F8F852C8F804530A930A9B236CBD
:1099B400C8F808533343C8F8FC22C8F8F0122364EB
:1099C400236C33400993099B98F82D33002B01F045
:1099D4004E8002239649954888F82D33FEF78AFD78
:1099E4000122002393484FF4807188F82D2398F8BE
:1099F4006D23C8F83003C8F8343302F0FF00C8F808
:109A04004033C8F83833C8F84433C8F84833C8F882
:109A14003C13002A01F0318002268749854801243D
:109A240088F86D63FEF766FD98F82C3300256022F4
:109A34002096A3421EAB88F86D431E921F95009397
:109A4400CDE92155CDE923554FD01946D8F8F00278
:109A5400994688F82C4388F82D63FEF71BFDD8F847
:109A6400F0324946DDF888C09A69184642F0080287
:109A74009A619F6927F004079F619A6942EA0C0280
:109A84009A6188F82D4388F82C4388F82D63FEF7F3
:109A9400CDFCD8F8F0324946DDF888C09A691846FA
:109AA40042F400629A619F6927F480679F619A6912
:109AB40042EA0C229A6188F82D4388F82C4388F8EE
:109AC4002D63FEF77FFCD8F8F0322298D96941F073
