:020000040800F2
:1000000000000420992E00081D130008E9120008C2
:100010001F1300082113000823130008000000002C
:100020000000000000000000000000002513000890
:10003000271300080000000029130008DB12000845
:100040000D2F00080D2F00080D2F00080D2F0008A0
:100050000D2F00080D2F00080D2F00080D2F000890
:100060000D2F00080D2F00080D2F00080D2F000880
:100070000D2F00080D2F00080D2F00080D2F000870
:100080000D2F00080D2F00080D2F00080D2F000860
:100090000D2F00080D2F00080D2F00080D2F000850
:1000A0000D2F00080D2F00080D2F00080D2F000840
:1000B0000D2F00080D2F00080D2F00080D2F000830
:1000C0000D2F00080D2F00080D2F00080D2F000820
:1000D0000D2F00080D2F00080D2F00080D2F000810
:1000E0000D2F00080D2F00080D2F00080D2F000800
:1000F0000D2F00080D2F00080D2F00080D2F0008F0
:100100000D2F00080D2F00080D2F00080D2F0008DF
:100110000D2F00080D2F00080D2F00080D2F0008CF
:100120000D2F00080D2F00080D2F00080D2F0008BF
:100130000D2F00080000000000000000000000007B
:100140000000000000000000000000000D2F00086B
:100150000D2F00080D2F00080D2F00080D2F00088F
:100160000D2F00080D2F00080D2F00080D2F00087F
:100170000D2F00080D2F0008000000000D2F0008B3
:100180000D2F00080D2F00080D2F00080D2F00085F
:100190000D2F00080D2F0008000000000D2F000893
:1001A0000000000000000000000000000D2F00080B
:1001B0000D2F00080D2F00080000000000000000B7
:1001C000000000000000000000000000000000002F
:1001D0000000000000000000000000000D2F0008DB
:1001E00010B5054C237833B9044B13B10448AFF371
:1001F00000800123237010BD1C00002000000000BF
:10020000842F000808B5034B1BB103490348AFF323
:10021000008008BD0000000020000020842F00089E
:1002200080B483B000AF7860002318460C37BD4619
:100230005DF8047B704780B582B000AF4FF448731F
:10024000FB80844B1B78DBB2012B0CBF0123002306
:10025000DBB2002B30D0804B1A88804B1B889A422F
:1002600040F2F3807C4B1B8803F00103002B0FD07E
:100270007B4B1A78597809020A439B781B041A436E
:10028000002362F317031946764801F059F90EE08E
:10029000754B1A78597809020A439B781B041A4354
:1002A000002362F3170319466E4801F049F96A4BBF
:1002B0001A886A4B1A80C8E0664B1B78DBB2032BA6
:1002C0000CBF01230023DBB2002B52D0674B1B88ED
:1002D0005A1C91B2654A1180C82B8CBF01230023A0
:1002E000DBB2002B21D0624B1A78597809020A43FD
:1002F0009B781B041A43002362F3170319465948DD
:1003000001F01EF95B4B1A78597809020A439B7871
:100310001B041A43002362F317031946564801F0E1
:1003200053F9524B00221A808FE0504B1B88642BEC
:1003300040F08B804F4B1A78597809020A439B781A
:100340001B041A43002362F317031946454801F0C2
:10035000F7F8474B1A78597809020A439B781B042F
:100360001A43002362F317031946434801F02CF99E
:100370006BE0384B1B78DBB2002B0CBF0123002352
:10038000DBB2002B03D0002000F01AFB5DE0314B04
:100390001B78DBB2042B0CBF01230023DBB2002B44
:1003A00053D0324B1B881A46FB885B109A421DD1F2
:1003B000324B1A78597809020A439B781B041A4376
:1003C000002362F317031946264801F0B9F82B4BB6
:1003D0001A78597809020A439B781B041A430023B0
:1003E00062F317031946244801F0EEF81F4B1B88EF
:1003F0005A1C91B21D4A1180FA889A4294BF012377
:100400000023DBB2002B20D0184B00221A80164BA1
:100410001A78597809020A439B781B041A4300236F
:1004200062F3170319460F4801F08AF80E4B1A7849
:10043000597809020A439B781B041A43002362F38C
:10044000170319460C4801F0BFF800BF0837BD4636
:1004500080BD00BFEC410020E4410020E6410020C7
:10046000B42F0008F0410020C02F00087A4200207D
:10047000C42F0008B02F0008F1410020BC2F000855
:1004800080B500AF0E4801F0F9F80D4801F004F90D
:100490000423082210210B4801F038F9094801F023
:1004A00050F9094B1B68094A1360094B00221A8056
:1004B000084B00221A80084B00221A7000BF80BD32
:1004C000384000204841002008000020E84100207A
:1004D000E4410020E6410020EC41002080B500AF5F
:1004E00000F0E0FBFFF7A7FE00BF80BD90B589B02C
:1004F00000AF0023FB610023BB6100237B6100236D
:10050000BB7200237B720023FB724FF0006000F08F
:10051000F9FD01F07BFC00F009FE40F6B83001F077
:100520009DFCB74B1A78597809020A439B781B0443
:100530001A43002362F317031946B24801F000F88A
:10054000B14B1A78597809020A439B781B041A4365
:10055000002362F317031946AC4801F035F84FF455
:10056000FA43BB61BB695A1EBA61002B14BF012359
:100570000023DBB2002B0FD0A54801F075F9A44889
:1005800001F023FA0346002B03D07B6901337B6122
:10059000E8E700237B61E5E77B6943F69822934215
:1005A00001D9012300E000233B723B7A002B00F0CD
:1005B000E981FFF765FF964801F007FA0346002B33
:1005C00003D0934801F050F9F5E70023BB720023F4
:1005D0007B728F4801F048F94FF47A7001F03EFCCD
:1005E000FB7A002B40F0CE810023FB74894801F098
:1005F0000FF90346002B0AD0FB7C83F00103DBB22A
:10060000002B04D0FB7A002B01D1012300E0002352
:10061000002B00F011817F4801F007F90346FB71C0
:10062000FB7919467C4801F059FA0346BB71FB6916
:100630000133FB61BB79023B032B00F2DC8001A29A
:1006400052F823F05506000827070008690700083C
:10065000AB070008714B01221A70714B1B8803F025
:100660003F031B021A466F4BD4186B4801F02AF85F
:1006700003464FF480721946204600F025FD684B72
:100680001B8801339AB2664B1A80654B1B8803F0B6
:100690003F03002B43D1614B03221A70624B1B684E
:1006A00003F58042614B1B699A420ED25E4B1B6878
:1006B0004FF4804219465B4800F011FD5A4B1B680D
:1006C00003F58043584A136022E0544B02221A700B
:1006D000574B1A78597809020A439B781B041A432E
:1006E000002362F317031946464800F029FF504BD8
:1006F0001A78597809020A439B781B041A4300238D
:1007000062F317031946414800F05EFF0123FB74B2
:10071000414800F0C1FF3F4801F013F86EE03E4849
:1007200000F0BAFF6AE0434B1A78597809020A438D
:100730009B781B041A43002362F3170319463148C0
:1007400000F0FEFE3A4B1A78597809020A439B786A
:100750001B041A43002362F3170319462B4800F0C9
:1007600033FF0123FB7449E0314B1A7859780902B1
:100770000A439B781B041A43002362F317031946AC
:10078000204800F0DDFE2B4B1A78597809020A4305
:100790009B781B041A43002362F3170319461B4876
:1007A00000F012FF0123FB7428E00123FB721B4BB6
:1007B00004221A70082000F003F9154801F005F929
:1007C000034683F00103DBB2002B0AD0104801F08E
:1007D0004BF8042000F0F4F84FF47A7001F03EFB7F
:1007E000EBE70B4801F0F1F80346002B05D0084871
:1007F00001F03AF8F5E700BFF8E600BFF6E600BF03
:10080000B02F0008F0410020BC2F0008F14100206B
:10081000784200204841002038400020EC41002070
:10082000E441002038000020E84100209C2F00080F
:10083000B82F0008C82F0008FB7C002B7BD0574B3B
:1008400002221A7001F004FBF860554801F0BDF86F
:10085000034683F00103DBB2002B3CD0504801F08B
:1008600003F801F0F5FA0246FB68D31A632B8CBF3C
:1008700001230023DBB2002B0ED04A4B1A785978A3
:1008800009020A439B781B041A43002362F31703EF
:100890001946454800F098FE01F0DAFA0246FB6876
:1008A000D31AC72B8CBF01230023DBB2002BCCD083
:1008B00001F0CEFAF8603D4B1A78597809020A43E4
:1008C0009B781B041A43002362F31703194636482A
:1008D00000F07AFEB9E7324801F077F80346002BC2
:1008E00003D02F4800F0C0FFF5E72E4B1A78597857
:1008F00009020A439B781B041A43002362F317037F
:1009000019462B4800F01CFE264B1A78597809022C
:100910000A439B781B041A43002362F3170319460A
:10092000214800F051FEFFF7ABFD0023BB7200230E
:100930007B720023FB721A4800F096FF1D4800F0FE
:10094000ADFF1C4801F052F80346002B05D01A4BAE
:100950001B88002B01D10123FB72114801F057F8CD
:100960000346002B3FF43CAE0C4B1B78DBB2002B54
:100970000CBF01230023DBB2002B3FF431AE012377
:10098000FB722DE601F008FA01F034FD0B4800F08F
:10099000C3FB012318462437BD4690BDEC4100201F
:1009A00078420020B02F0008F1410020B82F000845
:1009B000F041002079420020E4410020004000087E
:1009C00080B584B000AF0346FB7101F041FAB86016
:1009D000FB79042B0CD0082B03D0002B00F00181F5
:1009E00033E1A44ABB681360A34B00221A702CE1C8
:1009F00041F28833FB60A04B1B78002B1DD19F4B2D
:100A00001A78597809020A439B781B041A43002379
:100A100062F3170319469A4800F092FD974B1A7833
:100A2000597809020A439B781B041A43002362F396
:100A300017031946934800F0C7FD8F4B1B78012B15
:100A40001DD1914B1A78597809020A439B781B04EF
:100A50001A43002362F317031946894800F070FD1A
:100A6000894B1A78597809020A439B781B041A4368
:100A7000002362F317031946824800F0A5FD7E4B60
:100A80001B78022B1DD1814B1A78597809020A4331
:100A90009B781B041A43002362F317031946784816
:100AA00000F04EFD794B1A78597809020A439B7879
:100AB0001B041A43002362F317031946714800F020
:100AC00083FD6D4B1B78032B1DD1714B1A78597820
:100AD00009020A439B781B041A43002362F317039D
:100AE0001946674800F02CFD694B1A7859780902BD
:100AF0000A439B781B041A43002362F31703194629
:100B0000604800F061FD5C4B1B78042B1DD1614BEC
:100B10001A78597809020A439B781B041A43002368
:100B200062F317031946564800F00AFD594B1A782C
:100B3000597809020A439B781B041A43002362F385
:100B4000170319464F4800F03FFD4B4B1B78052B10
:100B50001DD1514B1A78597809020A439B781B041E
:100B60001A43002362F317031946454800F0E8FCD6
:100B7000494B1A78597809020A439B781B041A4397
:100B8000002362F3170319463E4800F01DFD3A4B5F
:100B90001B78062B1DD1414B1A78597809020A435C
:100BA0009B781B041A43002362F317031946344849
:100BB00000F0C6FC394B1A78597809020A439B7831
:100BC0001B041A43002362F3170319462D4800F053
:100BD000FBFC294B1B78072B34D1274B00221A70C2
:100BE00030E041F28833FB60234B1B78002B0ED1A1
:100BF0002B4B1A78597809020A439B781B041A4335
:100C0000002362F3170319461E4800F0DDFC1A4B5F
:100C10001B78012B0ED11D4B1A78597809020A4313
:100C20009B781B041A43002362F3170319461548E7
:100C300000F0CAFC104B1B78022B05D10E4B002292
:100C40001A7001E000BF00E000BF0A4B1B68BA68E1
:100C5000D31AFA689A4208D2074B1B780133DAB2EA
:100C6000054B1A70034ABB68136000BF1037BD46BE
:100C700080BD00BF7C42002080420020B82F0008C9
:100C8000F0410020F1410020C42F0008BC2F0008D3
:100C9000CC2F0008C02F0008C82F0008B42F000870
:100CA000B02F000880B582B000AF0D4800F0C4FB43
:100CB000034683F00103FB710A4B1B88002B05D10F
:100CC000FB791946084800F054FD05E0054B1B88E8
:100CD000013B9AB2034B1A8000BF0837BD4680BD66
:100CE00074420020100000204841002080B582B0EE
:100CF00000AF786039607B68012B1DD13B684FF6EF
:100D0000FF72934218D10E4800F0A2FC0D4A0E4922
:100D10000B4802F023F90D4800F0E0FC094A0C49A9
:100D20000A4802F01BF90B4800F018FF0A4800F0CF
:100D300089FD0A4800F0F9FA00BF0837BD4680BDBA
:100D400038400020000000206716000848410020BD
:100D5000F7160008F041002074420020784200207D
:100D600080B500AF4FF6FF710120FFF7BFFF80BDD8
:100D700053B94AB9002908BF00281CBF4FF0FF3102
:100D80004FF0FF3000F072B9ADF1080C6DE904CE00
:100D900000F006F8DDF804E0DDE9022304B0704756
:100DA0002DE9F047089E04468846002B4BD18A4225
:100DB000154667D9B2FA82F24AB1C2F1200701FAA8
:100DC00002F320FA07F7954047EA030894404FEAF8
:100DD000154E230CB8FBFEF71FFA85FC0EFB178897
:100DE00043EA084307FB0CF1994209D9EB1807F1D4
:100DF000FF3080F01B81994240F21881023F2B4462
:100E00005B1AA4B2B3FBFEF00EFB103344EA0344BA
:100E100000FB0CFCA44509D92C1900F1FF3380F02C
:100E20000781A44540F2048102382C4440EA07407F
:100E3000A4EB0C0400271EB1D4400023C6E90043F4
:100E40003946BDE8F0878B4209D9002E00F0EB80CF
:100E50000027C6E9000138463946BDE8F087B3FAF5
:100E600083F7002F47D18B4202D3824200F2FA80EF
:100E7000841A61EB030301209846002EE0D0C6E9F6
:100E80000048DDE702B9FFDEB2FA82F2002A40F044
:100E90008F80491B4FEA154E1FFA85F80127B1FBD9
:100EA000FEFC230C0EFB1C1143EA014308FB0CF172
:100EB000994207D9EB180CF1FF3002D2994200F2A7
:100EC000CD808446591AA3B2B1FBFEF00EFB10147C
:100ED00043EA044408FB00F8A04507D92C1900F1A7
:100EE000FF3302D2A04500F2B6801846A4EB0804F6
:100EF00040EA0C409FE7C7F1200CBB4022FA0CFEF1
:100F00004EEA030E01FA07F420FA0CF521FA0CF36D
:100F10004FEA1E482543B3FBF8F92C0C08FB1933A4
:100F20001FFA8EFA44EA034309FB0AF49C4202FAD0
:100F300007F200FA07F10BD91EEB030309F1FF30AA
:100F400080F087809C4240F28480A9F102097344BA
:100F50001B1BADB2B3FBF8F008FB103345EA0344AA
:100F600000FB0AFAA24508D91EEB040400F1FF3386
:100F70006BD2A24569D90238744440EA0940A0FB0B
:100F80000289A4EB0A044C45C2464B4654D351D0C7
:100F9000002E69D0B1EB0A0564EB030404FA0CFCE3
:100FA000FD40FC404CEA0505C6E90054002747E730
:100FB000C2F1200320FA03F7954001FA02F021FA6A
:100FC00003F34FEA154E3843010CB3FBFEF71FFA4B
:100FD00085F80EFB173341EA034107FB08F38B4208
:100FE00004FA02F407D9691807F1FF3C2FD28B42AB
:100FF0002DD9023F2944CB1A81B2B3FBFEF00EFB80
:10100000103341EA034100FB08F38B4207D969180A
:1010100000F1FF3C17D28B4215D902382944C91A76
:1010200040EA07473BE73746304609E70746E7E629
:101030001846FBE64145ABD2B8EB020A69EB0E025B
:1010400001381346A4E76046E9E7184695E7674686
:10105000D1E781467CE702382C4447E7ACF1020C2B
:101060002B442FE7384608E73746E9E6704700BFCC
:1010700070B50D4E0D4CA41BA4100025A54209D13E
:101080000B4E0C4C01F07EFFA41BA4100025A542C2
:1010900005D170BD56F8253098470135EEE756F872
:1010A000253098470135F2E7E8330008E8330008B7
:1010B000E8330008F033000802440346934200D1AD
:1010C000704703F8011BF9E7431E0A4410B591422B
:1010D00000D110BD11F8014B03F8014FF7E770B5CF
:1010E0000C460546164600F0A7F8204600F088F8A2
:1010F0002146B208284600F0ABF8BDE8704000F089
:10110000A5B8000020F06040024B20F07F009860FE
:10111000704700BF00ED00E080B4436800AF026894
:1011200082F30888BD465DF8047B1847324B0120E6
:101130004FF0100C1A6C42F0805200B51A6495B052
:101140001B6C03F080530193019B2C4B1A6842F4F3
:1011500040421A604FF480021B6803F4404302933C
:10116000029B4FF48033CDE90803022308A8CDE9A0
:101170000E324FF4D872CDE91233CDE910C201F02E
:10118000CFF918B14FF00060FFF7C6FF01F0FAF891
:1011900018B14FF00060FFF7BFFF02230F220021BC
:1011A00003A8CDE903234FF4A053CDE905134FF471
:1011B00080530721079301F075FB18B14FF00060D1
:1011C000FFF7AAFF01F040FB01F008FC42F21073A8
:1011D000B0FBF3F000F098FE042000F0ABFE052019
:1011E00000F04EFE00224FF0FF30114600F05AFE94
:1011F00015B05DF804FB00BF0038024000700040ED
:10120000B0F1006F0ED00B4B98420DD003F5804328
:1012100098420BD003F58043984209D10320022164
:1012200000F0AABF0020FAE70120F8E70220F6E765
:10123000704700BF0040000808B500F017FF024BE0
:10124000F322DA6008BD00BF003C024000F020BF7E
:10125000F8B51646054600240F1A16F1FF3605EBC1
:10126000070101D22046F8BD55F8042B00230220C7
:1012700000F044FF0443E4B2EFE708B5052000F0B6
:10128000FFFD00226FF00B00114600F00BFE002264
:101290006FF00A00114600F005FE00226FF0090011
:1012A000114600F0FFFD00226FF00400114600F02F
:1012B000F9FD00226FF00300114600F0F3FD00225B
:1012C0006FF00100114600F0EDFD00224FF0FF30FD
:1012D0001146BDE8084000F0E5BD08B500F0ACFDE2
:1012E000BDE8084000F032BE82B001238DF807301F
:1012F00000238DF80630084B5A6B9A6BDA6ADA6B6A
:101300001A6B9B6A9DF806301BB99DF80730002BBD
:10131000FBD102B0704700BF00ED00E0FEE7FEE742
:10132000FEE7FEE7FEE7FEE7FEE780B584B000AF2C
:1013300078607B68184600F0BDFC7B680133184676
:1013400000F0F0FC1023FB60FB685A1EFA60002BD3
:1013500014BF01230023DBB2002B03D0786800F018
:1013600006F8F1E77B6818461037BD4680BD80B5AA
:1013700082B000AF78607B68184600F075FA7B6831
:101380000133184600F08AFA00BF0837BD4680BD19
:1013900080B483B000AF78600B467B807B681A69AD
:1013A0007B881340002B14BF01230023DBB21846B7
:1013B0000C37BD465DF8047B704780B582B000AF46
:1013C0007860786800F084FA7B6818460837BD4674
:1013D00080BD000080B588B000AF78607B6818469B
:1013E000FFF7EBFF124B1B6B114A43F00203136331
:1013F0000F4B1B6B03F00203BB60BB6807F10C03D0
:1014000000221A605A609A60DA601A614FF48073A1
:10141000FB6000233B6102237B6107F10C0319464B
:10142000044800F0D1FE7B6818462037BD4680BDD9
:10143000003802400004024080B582B000AF7860FE
:101440004FF480710648FFF7A3FF0346002B0CBF43
:1014500001230023DBB218460837BD4680BD00BF1C
:101460000004024080B582B000AF7860786800F078
:101470003AFA7B6818460837BD4680BD80B588B00B
:1014800000AF78607B681846FFF7ECFF124B1B6BD0
:10149000114A43F0020313630F4B1B6B03F002036B
:1014A000BB60BB6807F10C0300221A605A609A60A7
:1014B000DA601A614FF40073FB6000233B61022382
:1014C0007B6107F10C031946044800F07DFE7B6840
:1014D00018462037BD4680BD003802400004024057
:1014E00080B483B000AF78607B681B7818460C37F7
:1014F000BD465DF8047B704780B483B000AF786070
:101500007B681B7818460C37BD465DF8047B704736
:1015100080B483B000AF78607B685B7818460C3786
:10152000BD465DF8047B704780B483B000AF78603F
:101530007B689B7818460C37BD465DF8047B704786
:10154000B0B582B000AF786039603B461846FFF70F
:10155000D3FF04463B461846FFF7DAFF05463B46F5
:101560001846FFF7E1FF03462A462146786800F057
:1015700005F800BF0837BD46B0BD000080B584B097
:1015800000AFF86039723A713B7007F108031846F2
:10159000FFF7A6FF03461A460A4B5A633B46184616
:1015A000FFF79EFF03461A46064B9A633B1D1846FB
:1015B000FFF796FF03461A46024BDA6300BF103767
:1015C000BD4680BD00000140B0B582B000AF78607C
:1015D00039603B461846FFF78FFF04463B461846E6
:1015E000FFF796FF05463B461846FFF79DFF03466B
:1015F0002A462146786800F005F800BF0837BD4646
:10160000B0BD000080B584B000AFF86039723A71A7
:101610003B7007F108031846FFF762FF03461A46BE
:101620000A4B5A633B461846FFF75AFF03461A46D1
:10163000064B9A633B1D1846FFF752FF03461A46B6
:10164000024BDA6300BF1037BD4680BD0004004086
:1016500080B483B000AF78607B6818460C37BD4615
:101660005DF8047B704780B483B000AF78607B681E
:1016700018460C37BD465DF8047B704780B483B0D4
:1016800000AF78607B680022A3F80E2100BF0C3702
:10169000BD465DF8047B704780B483B000AF7860CE
:1016A0007B6800221A707B6800229A807B68FF2288
:1016B0005A707B6820229A7000BF0C37BD465DF8D7
:1016C000047B704780B483B000AF78607B680733D9
:1016D00018460C37BD465DF8047B704780B582B074
:1016E00000AF78607B68184600F008F97B68184600
:1016F0000837BD4680BD80B483B000AF78607B689A
:1017000018460C37BD465DF8047B704780B485B041
:1017100000AFF860B9607A603B60BA687B681344D8
:101720005A08FB68C3F888207A683B6813445A0853
:10173000FB68C3F88C2000BF1437BD465DF8047BFE
:10174000704780B582B000AF78607B68184600F0C3
:10175000E0F87B68002283F890207B680022C3F8C1
:1017600094207B68042283F8982000BF0837BD4688
:1017700080BD80B584B000AF78600B46FB707B689D
:1017800093F89030FA789A4207D17B68D3F8943076
:101790005A1C7B68C3F8942036E07B68FA7883F89B
:1017A00090200023FB737B68D3F894207B68D3F8E8
:1017B00088309A4202D30223FB730CE07B68D3F893
:1017C00094207B68D3F88C309A4202D30123FB73B8
:1017D00001E00023FB737B6893F89830002B09D05D
:1017E0000223FB737B6893F89830013BDAB27B6885
:1017F00083F898207B68FA7B1146184600F09BF826
:101800007B680022C3F8942000BF1037BD4680BD1E
:1018100080B582B000AF78607B68184600F0A7F80A
:10182000034618460837BD4680BD80B582B000AF7C
:1018300078607B68184600F0ADF803461846083714
:10184000BD4680BD80B582B000AF78607B68184629
:10185000FFF7C0FD7B6802331846FFF70FFE7B6879
:1018600018460837BD4680BD90B583B000AF78609C
:101870007B681B785B005CB2786800F0D9F803469F
:10188000184600F047FA03465BB223435BB2DAB274
:101890007B681A7000BF0C37BD4690BD90B583B011
:1018A00000AF78607B681B785B005CB2786800F002
:1018B000CAF80346184600F065FA03465BB22343B4
:1018C0005BB2DAB27B681A7000BF0C37BD4690BDC0
:1018D00080B483B000AF78607B6818460C37BD4693
:1018E0005DF8047B704780B483B000AF78607B689C
:1018F00018460C37BD465DF8047B704780B483B052
:1019000000AF78607B6818460C37BD465DF8047BF5
:10191000704780B483B000AF78607B680022C3F862
:1019200084207B680022C3F8802000BF0C37BD46AE
:101930005DF8047B704780B485B000AF78600B46DB
:10194000FB707B68D3F88430FB607A68FB681344D3
:10195000FA781A70FB68013303F07F027B68C3F8E2
:10196000842000BF1437BD465DF8047B704780B407
:1019700083B000AF78607B68D3F884207B68D3F8AD
:101980008030D31A03F07F0318460C37BD465DF84C
:10199000047B704780B485B000AF78607B68D3F873
:1019A0008030FB607A68FB6813441B78FB72FB682D
:1019B000013303F07F027B68C3F88020FB7A18466E
:1019C0001437BD465DF8047B704780B483B000AF28
:1019D00078607B681B78002B0CBF01230023DBB2EF
:1019E00018460C37BD465DF8047B704780B483B061
:1019F00000AF78607B681B78802B0CBF012300232D
:101A0000DBB218460C37BD465DF8047B704780B4E6
:101A100083B000AF78607B681B78802B0CBF0123FC
:101A20000023DBB218460C37BD465DF8047B7047D7
:101A300080B483B000AF78607B6818460C37BD4631
:101A40005DF8047B704780B483B000AF78607B683A
:101A500018460C37BD465DF8047B704710B5C0438F
:101A60000A44074C914208D011F8013B4340DBB2D5
:101A700054F8233083EA1020F4E7C04310BD00BFC0
:101A8000D02F000843780B41DB0702D403230370F7
:101A9000704701291BD01ED3022910D1838842F23E
:101AA000CE3201339BB29342838004D9B0F80E3119
:101AB0000BB10523EBE70723437020238370837862
:101AC00023B90122A0F80C31C38002707047417025
:101AD0008378013BF2E702234370F9E710B50378FE
:101AE00004460A461BB1012B04D0207810BDFFF735
:101AF000C9FFFAE7022902D103230370F5E7B0F822
:101B00000C311844C1790A43C271A1790131C9B2BB
:101B10000829A1711ED1013300209BB2A071B3F539
:101B2000827FA4F80C3112D14FF48072E11DFFF7CF
:101B300095FFD4F807311BBA98420CBF022004204D
:101B4000B4F80E3101332070A4F80E31CDE72344F0
:101B5000D871CAE75200C271C7E700002DE9F04111
:101B60004F4C90B04FF002080546236B10AE4D4825
:101B70002F1D43F001032363236B03F00103009344
:101B8000009B236B43F004032363236B03F00403E4
:101B90000193019B0123CDE90583CDE907834FF430
:101BA000E06346F8303D314600F00EFB4FF4E07341
:101BB00031463D4804934FF48076CDF8208000F004
:101BC00003FB636C384643F001036364636C03F00A
:101BD00001030293029B236C43EA08032364236CF2
:101BE000002403EA0803EC600393039B2F4BC5E931
:101BF0000464C5E90134C5E9064401F041F82C4B01
:101C0000EC64C5E9146405F14406C5E91134C5E97D
:101C10001644304601F034F86023224609A93846BC
:101C20000993CDF82C800A94CDE90C44CDE90E44FB
:101C300001F078F809A90422384601F073F809A9DF
:101C40000822384601F06EF8224609A9304601F014
:101C500069F809A90422304601F064F8082209A9AC
:101C6000304601F05FF82146384601F013F90421AF
:101C7000384601F00FF90821384601F00BF92146EA
:101C8000304601F007F90421304601F003F908213C
:101C9000304601F0FFF8284610B0BDE8F08100BFE3
:101CA00000380240000002400008024000000140ED
:101CB00000040040FF23002110B5037086B0134BD1
:101CC000044602A81A6B42F004021A6310221B6B2E
:101CD00003F004030093009BFFF7EEF94FF4007349
:101CE0000B4801A901930123039300F06DFA2378B7
:101CF000102207480169013AC1F3402141EA430338
:101D0000DBB2F7D12046237006B010BD0038024088
:101D100000080240024B1869C0F34020704700BF22
:101D200000080240FF23002110B5037086B0134B5A
:101D3000044602A81A6B42F001021A6310221B6BC0
:101D400003F001030093009BFFF7B6F94FF4006323
:101D50000B4801A901930123039300F035FA23787E
:101D6000102207480169013AC1F3C02141EA430347
:101D7000DBB2F7D12046237006B010BD0038024018
:101D800000000240024B1869C0F3C020704700BF3A
:101D9000000002407047000010B5094B4FF0FF32C1
:101DA00000241A621C625A625C621A611C615A61E8
:101DB0005C619A619C61FFF7EDFF204610BD00BF9A
:101DC0000038024038B50E4B05460E4A18784FF4DD
:101DD0007A73B3FBF0F31068B0FBF3F000F094F803
:101DE000044658B90F2D09D8024629464FF0FF3056
:101DF00000F058F8044B20461D6038BD0120FCE778
:101E000012000020180000201400002008B5094B23
:101E100003201A6842F400721A601A6842F4807251
:101E20001A6000F02DF80020FFF7CCFFFFF725FA2D
:101E3000002008BD003C0240034A044B11681B7897
:101E40000B441360704700BF844200201200002042
:101E5000014B1868704700BF8442002038B5044623
:101E6000FFF7F6FF0546631C1EBF044B1B78E41802
:101E7000FFF7EEFF401BA042FAD338BD120000204E
:101E8000074A0002D36800F4E06023F4E0631B0417
:101E90001B0C43F0BF6343F400330343D36070472C
:101EA00000ED00E0164B70B5DC684FF0FF36C4F370
:101EB0000224C4F10705231D042D28BF0425062B89
:101EC00006FA05F38CBF033C0024002821EA030333
:101ED00003FA04F306FA04F422EA040443EA0403CE
:101EE0004FEA0313DBB204DA00F00F00054A135483
:101EF00070BD00F1604000F5614080F80033F7E705
:101F000000ED00E014ED00E00138B0F1807F0AD26E
:101F1000064BF021064A5860002082F82310072261
:101F200098601A6070470120704700BF10E000E021
:101F300000ED00E0044B04281A680CBF42F00402D4
:101F400022F004021A60704710E000E008B5FEF7C6
:101F5000C5FA08BD094910B50C6924F440740C6138
:101F60000C6944F440740C610C6944F001040C6188
:101F700002604360BFF34F8F10BD00BF003C0240C2
:101F8000084B1A6922F440721A611A6942F400720D
:101F90001A611A6942F001021A610160BFF34F8FA2
:101FA000704700BF003C0240084B1A6922F440729F
:101FB0001A611A6942F480721A611A6942F00102C8
:101FC0001A610180BFF34F8F704700BF003C024091
:101FD000074B1A6922F440721A611A691A611A6968
:101FE00042F001021A610170BFF34F8F704700BFCA
:101FF000003C02401B4BDA68920704D51A498A69F3
:1020000042F020028A61DB68DB0604D5164A936938
:1020100043F010039361134BDA68900604D512491C
:102020008A6942F008028A61DB68590604D50E4AC3
:10203000936943F0040393610A4BDA68120604D5EE
:1020400009498A6942F002028A61DB68DB0504D52E
:10205000054A936943F040039361024B4FF4F972D0
:10206000DA607047003C024088420020064B1A6943
:10207000002A07DA054A5A6002F188325A60186964
:10208000C00F704700207047003C024023016745A5
:10209000034A0020136943F000431361704700BFF7
:1020A000003C0240134B002270B505469A61124C69
:1020B000FFF7CEFE0646E368DB0307D4E26812F4BE
:1020C000F9720ED0FFF796FF012003E06A1CF2D0F0
:1020D0000DB9032070BDFFF7BBFE801BA842EAD9F3
:1020E000F7E7E06810F00100F4D001231046E36048
:1020F000F0E700BF88420020003C02402DE9F0419B
:102100001B4C984607460D46237D1646012B2DD0C5
:1021100001234CF250302375FFF7C4FF90B9032F11
:1021200007D8DFE807F00213181DF1B22846FFF7C1
:102130004FFF4CF25030FFF7B5FF0E4A136923F002
:102140000103136100232375BDE8F081B1B2284675
:10215000FFF72AFFEDE731462846FFF711FFE8E7D2
:10216000324643462846FFF7F5FEE2E70220EBE75A
:1021700088420020003C024039B101291ED00229CA
:102180000CBF4FF400714FF440710E4B1A6922F4EA
:1021900040721A611A69114319611A6922F0F80232
:1021A0001A611A6942F0020242EAC00018611A6913
:1021B00042F480321A61BFF34F8F70474FF4807141
:1021C000E3E700BF003C02402DE9F04F0B6885B00B
:1021D000DFF8A88101930023664ADFF8A4914FF04D
:1021E000010C019C0CFA03FC04EA0C06B44540F017
:1021F000AB804C6824F01007022F16D14FEAD30AA7
:1022000003F0070B4FF00F0E00EB8A0A4FEA8B0B1F
:10221000DAF820500EFA0BFE25EA0E0E0D6905FACB
:102220000BF545EA0E05CAF820504FEA430A03258C
:10223000D0F800B004F0030E05FA0AF5013F0EFADB
:102240000AFEED43012F05EA0B0B4EEA0B0EC0F818
:1022500000E011D8876807EA050BCF6807FA0AFE85
:102260004EEA0B078760476827EA0C0CC4F3001797
:102270009F4047EA0C074760C7683D408F6807FAF0
:102280000AF73D43C560E5005ED5D8F8445023F019
:10229000030703F0030C4FF00F0E45F4804507F1E0
:1022A00080474FEA8C0CC8F8445007F59C37D8F8A3
:1022B000445005F480450395039D0EFA0CF5D7F8BC
:1022C00008A02AEA050E2C4DA84244D005F58065E9
:1022D000A84242D005F58065A84240D005F580654A
:1022E000A8423ED005F58065A8423CD048453CD088
:1022F00005F50065A8423AD005F58065A84214BFEF
:102300000825072505FA0CF514F4803F45EA0E056B
:10231000BD606FEA060715680CBF3D40354314F4F5
:10232000003F156055680CBF3D40354314F4801FD5
:10233000556095680CBF3D403543A4029560D56853
:1023400054BF3D403543D5600133102B7FF447AF78
:1023500005B0BDE8F08F0025D4E70125D2E70225BE
:10236000D0E70325CEE70425CCE70525CAE70625F7
:10237000C8E700BF003C01400000024000380240B6
:1023800000140240194B37B51A6C194C42F08052B8
:102390001A641B6C03F080530193019B236843F480
:1023A00080332360FFF754FD05466368DA030CD5DC
:1023B000236843F400332360FFF74AFD0C4C0546C5
:1023C00063689B030AD5002006E0FFF741FD401B30
:1023D000B0F57A7FE9D9032003B030BDFFF738FDAF
:1023E000401BB0F57A7FEBD9F5E700BF003802401B
:1023F0000070004070B5464CFFF72AFD0546236883
:1024000043F001032360236898075CD5236841F2F9
:10241000883643F080032360FFF71AFD002305464A
:10242000A3603B4CA36813F00C0F53D1FFF710FDD2
:102430002368054623F450232360354C2368990311
:102440004ED4FFF705FD2368054623F08073236013
:102450002F4C23689A0149D4FFF7FAFC23680546FC
:1024600023F0806323602A4C23681B0144D4FFF7C8
:10247000EFFC2368054623F080532360244C20683A
:1024800010F000503ED1234B234A6360103BC4F848
:102490008430C4F88830E36823F4FE43E360E368E3
:1024A00043F47F03E360636F23F001036367636FAB
:1024B00043F080736367194B1A60FFF783FC0030A9
:1024C00018BF012005E0FFF7C3FC401B02289AD982
:1024D000032070BDFFF7BCFC401BB042A2D9F7E758
:1024E000FFF7B6FC401B6428A8D9F1E7FFF7B0FC62
:1024F000401B0228ADD9EBE7FFF7AAFC401B64287C
:10250000B2D9E5E7FFF7A4FC401B6428B7D9DFE7A1
:1025100000380240103000240024F400180000208D
:102520002DE9F341044618B9012002B0BDE8F0815D
:102530000368D80710D4236899075ED42368190765
:1025400000F1A38023685A0700F1C480A269002A21
:1025500040F02E810020E8E7934B9A6802F00C02CD
:10256000042A07D09A6802F00C02082A0AD15B6894
:102570005A0207D58C4B1B689B03DCD56368002B84
:10258000D9D1D1E76368884DB3F5803F11D12B686D
:1025900043F480332B60FFF75BFC834D06462B68CA
:1025A0009F03C8D4FFF754FC801B6428F7D903208D
:1025B000BBE79BB92B6823F480332B602B6823F493
:1025C00080232B60FFF744FC06462B689803B2D5A6
:1025D000FFF73EFC801B6428F7D9E8E7B3F5A02F8E
:1025E0002B6803D143F480232B60D0E723F480339E
:1025F0002B602B6823F48023CCE76B4B9A6812F096
:102600000C0F07D09A6802F00C02082A11D15B68FF
:1026100059020ED4644B1A68920702D5E268012A67
:1026200082D11A68216922F0F80242EAC1021A60D6
:1026300084E7E3685C4DBBB12B6843F001032B607A
:10264000FFF706FC06462B689F0707D52B68226913
:1026500023F0F80343EAC2032B606FE7FFF7F8FBB0
:10266000801B0228EFD9A2E72B6823F001032B601F
:10267000FFF7EEFB06462B6898077FF55FAFFFF785
:10268000E7FB801B0228F6D991E76369464D83B1C9
:102690006B6F43F001036B67FFF7DAFB06466B6F66
:1026A0009B073FF54FAFFFF7D3FB801B0228F6D9FE
:1026B0007DE76B6F23F001036B67FFF7C9FB0646ED
:1026C0006B6F9F077FF53EAFFFF7C2FB801B0228B1
:1026D000F6D96CE7344B1A6CD00027D41A6C01265B
:1026E00042F080521A641B6C03F080530193019BEB
:1026F0002E4D2B68D9051BD5A3682B4D012B27D157
:102700002B6F43F001032B6741F28835FFF7A0FBE5
:10271000254F80463B6F9B073FD5002E3FF416AFF9
:10272000214A136C23F0805313640FE70026DFE780
:102730002B6843F480732B60FFF78AFB07462B68F6
:10274000DA05D9D4FFF784FBC01B6428F7D92EE73C
:10275000ABB92B6F41F2883823F001032B672B6F45
:1027600023F004032B67FFF773FB07462B6F9807D3
:10277000D3D5FFF76DFBC01B4045F7D917E7052BF5
:102780002B6F03D143F004032B67B9E723F0010358
:102790002B672B6F23F00403B5E7FFF759FBA0EB82
:1027A0000800A842B6D902E7003802400070004095
:1027B000244DAB6803F00C03082B3FF4B5AE2B6837
:1027C000022A23F080732B602ED1FFF741FB0646CF
:1027D0002B68990122D4D4E907321343626A43F08B
:1027E000005343EA8213E26A43EA0263A26A154C89
:1027F0005208013A43EA02436B602B6843F080734E
:102800002B60FFF725FB054623689A013FF5A2AE32
:10281000FFF71EFB401B0228F6D9C8E6FFF718FB9E
:10282000801B0228D4D9C2E6FFF712FB04462B68AE
:102830009B017FF58FAEFFF70BFB001B0228F6D93B
:10284000B5E600BF00380240024A136843F4002393
:102850001360704700380240104908B58B6803F0D8
:102860000C03082B18D14A684B68496802F03F02F4
:1028700013F480030A48C1F3881118BF0023A1FB99
:102880000001FEF775FA054B5B68C3F301430133A2
:102890005B00B0FBF3F008BD0148FCE700380240E4
:1028A0000024F4002DE9F0410D46044610B9012042
:1028B000BDE8F081454A136803F00F038B4227D32C
:1028C00021688F072FD4C80742D4404A136803F009
:1028D0000F03AB4265D8226851076ED4130707D5A2
:1028E0003B4A2169936823F4604343EAC103936040
:1028F000FFF7B2FF364B374A9B68C3F30313D35C31
:10290000D840354B18600020FFF75CFA0020CFE775
:10291000136823F00F030B431360136803F00F03D6
:102920008B42C4D1CCE711F0040F294B03D09A6835
:1029300042F4E0529A600E0703D59A6842F460426E
:102940009A609A68A06822F0F00202439A60BAE79F
:1029500061681F4B01291A681BD112F4003FA6D0F1
:102960009A6841F288381A4E22F003020A439A60AC
:10297000FFF76EFA0746B368626803F00C03B3EB27
:10298000820FA2D0FFF764FAC01B4045F3D90320A1
:102990008EE7022902D112F0007FE0E712F0020F69
:1029A000DDE7136823F00F032B431360136803F074
:1029B0000F03AB427FF47BAF8DE70549E0688B687E
:1029C00023F4E05303438B6088E700BF003C0240E0
:1029D00000380240D033000818000020014B18686E
:1029E000704700BF18000020036A23F0010370B590
:1029F0000362036A4268846923F002030D6824F4C9
:102A0000803424F073042C438D682B430E4DA84270
:102A100002D00E4EB04211D123F00803CE68A84276
:102A200043EA060323F0040302D0084DA84205D16F
:102A300022F44072D1E9055635432A4342604A6880
:102A400084614263036270BD0000014000040140E4
:102A5000036A23F4807370B50362036A4268C46931
:102A600023F400730D6824F4803424F073042C43A1
:102A70008D6843EA0523114DA84203D005F5806512
:102A8000A84214D1CD6823F4006343EA05230B4D1B
:102A9000A84223F4806303D005F58065A84206D1DF
:102AA00022F44052D1E90556354342EA051242600C
:102AB0004A68C461C263036270BD00BF0000014088
:102AC000036A23F4805330B50362026A4468C36921
:102AD00022F400520D6823F0807323F4E64343EAA6
:102AE00005238D6842EA0532084DA84203D005F55A
:102AF0008065A84204D124F480444D6944EA8514D9
:102B00004460C3614B680364026230BD0000014051
:102B1000036A23F4803330B50362026A4468436D6C
:102B200022F400320D6823F4803323F070032B432A
:102B30008D6842EA0542094DA84203D005F580653B
:102B4000A84204D124F480344D6944EA0524446049
:102B500043654B688365026230BD00BF00000140E1
:102B6000036A23F4801330B50362026A4468436D3C
:102B700022F400120D6823F0807323F4E04343EA4B
:102B800005238D6842EA0552084DA84203D005F599
:102B90008065A84204D124F480244D6944EA852448
:102BA000446043654B68C365026230BD000001406C
:102BB00070470000304A0368904212D0B0F1804F55
:102BC0000FD0A2F57C4290420BD002F58062904279
:102BD00007D002F58062904203D002F5784290421D
:102BE00019D14A6823F070031343234A904229D035
:102BF000B0F1804F26D0A2F57C42904222D002F55F
:102C0000806290421ED002F5806290421AD002F596
:102C10007842904216D0194A904213D002F5806251
:102C200090420FD002F5806290420BD0A2F598320C
:102C3000904207D002F58062904203D002F5806294
:102C4000904203D123F44073CA6813434A6923F0C6
:102C50008003134303608B68C3620B688362064B77
:102C6000984203D003F58063984201D10B69036356
:102C700001234361704700BF000001400040014054
:102C800010B50446A0B190F83D3003F0FF021BB927
:102C900080F83C20FFF78CFF02232068211D84F878
:102CA0003D30FFF787FF0123002084F83D3010BD41
:102CB0000120FCE7036A23F0100370B50362036A86
:102CC0004268846923F020030D6824F0807424F4A2
:102CD000E64444EA05248D6843EA0513104DA842F2
:102CE00003D005F58065A84214D1CD6823F0800398
:102CF00043EA05130A4DA84223F0400303D005F52B
:102D00008065A84206D122F44062D1E905563543D8
:102D100042EA850242604A6884618263036270BD50
:102D20000000014038B590F83C3004460220012BE9
:102D300010D00123082A84F83D0084F83C3043D0A9
:102D400009D8FAB1042A2ED00123002084F83D309E
:102D500084F83C0038BD102A47D0142A56D00C2ADB
:102D6000F2D12068FFF7ACFE23680969DA6942F402
:102D70000062DA61DA6922F48062DA61DA6942EAD1
:102D8000012230E02068FFF72FFE236809699A6965
:102D900042F008029A619A6922F004029A619A69E3
:102DA0000A439A61D0E72068FFF784FF2368096926
:102DB0009A6942F400629A619A6922F480629A6187
:102DC0009A6942EA0122ECE72068FFF741FE236896
:102DD0000969DA6942F00802DA61DA6922F004026C
:102DE000DA61DA690A43DA61AEE72068FFF790FE3C
:102DF000236809695A6D42F008025A655A6D22F03B
:102E000004025A655A6D0A435A659DE72068FFF728
:102E1000A7FE236809695A6D42F400625A655A6D2B
:102E200022F480625A655A6D42EA0122ECE701F011
:102E30001F01036A10B501248A408C4023EA040371
:102E40000362036A1A43026210BD000010B5044613
:102E500001220068FFF7EBFF23680C4A934203D07E
:102E600002F58062934203D15A6C42F400425A64E4
:102E70009968074A0A40062A06D0B2F5803F03D077
:102E80001A6842F001021A60002010BD00000140E3
:102E900007000100FFF7DABFDFF84CD0002103E0A4
:102EA000124B5B58435004311148124B42189A425E
:102EB000F6D3002103E0104B5B58435004310F4818
:102EC0000F4B42189A42F6D30E4A02E0002342F812
:102ED000043B0D4B9A42F9D300F01AF8FEF7C8F8FC
:102EE000FDF704FB7047000000000420F4330008E5
:102EF000000000201C000020E0010008000000008D
:102F0000000000001C000020A4420020FEE700009A
:102F10000F490020D1F8883043F47003C1F888309D
:102F20000C4B1A6842F001021A6098601A6822F08D
:102F3000847222F480321A60074A5A601A6822F4B6
:102F400080221A60D8604FF000638B60704700BF2A
:102F500000ED00E000380240103000240B4601462E
:102F6000184600F001B8000010B5054C13462CB10E
:102F70000A4601460220AFF3008010BD2046FCE760
:102F800000000000F8B500BFF8BC08BC9E467047C2
:0C2F9000F8B500BFF8BC08BC9E467047B6
:102F9C0000000008004000080080000800C0000885
:102FAC000000010800000000FFFFFF00FF00000010
:102FBC0000FF00000000FF00FFFF0000FF00FF000B
:102FCC0000FFFF0000000000963007772C610EEE2A
:102FDC00BA51099919C46D078FF46A7035A563E964
:102FEC00A395649E3288DB0EA4B8DC791EE9D5E08B
:102FFC0088D9D2972B4CB609BD7CB17E072DB8E78A
:10300C00911DBF906410B71DF220B06A4871B9F3DE
:10301C00DE41BE847DD4DA1AEBE4DD6D51B5D4F417
:10302C00C785D38356986C13C0A86B647AF962FD7C
:10303C00ECC9658A4F5C0114D96C0663633D0FFAC9
:10304C00F50D088DC8206E3B5E10694CE44160D5CF
:10305C00727167A2D1E4033C47D4044BFD850DD2B9
:10306C006BB50AA5FAA8B5356C98B242D6C9BBDBCC
:10307C0040F9BCACE36CD832755CDF45CF0DD6DCC7
:10308C00593DD1ABAC30D9263A00DE518051D7C86E
:10309C001661D0BFB5F4B42123C4B3569995BACFF9
:1030AC000FA5BDB89EB802280888055FB2D90CC61A
:1030BC0024E90BB1877C6F2F114C6858AB1D61C193
:1030CC003D2D66B69041DC760671DB01BC20D298B2
:1030DC002A10D5EF8985B1711FB5B606A5E4BF9F3F
:1030EC0033D4B8E8A2C9077834F9000F8EA8099632
:1030FC0018980EE1BB0D6A7F2D3D6D08976C64919D
:10310C00015C63E6F4516B6B62616C1CD8306585B5
:10311C004E0062F2ED95066C7BA5011BC1F4088292
:10312C0057C40FF5C6D9B06550E9B712EAB8BE8BD3
:10313C007C88B9FCDF1DDD62492DDA15F37CD38C5C
:10314C00654CD4FB5861B24DCE51B53A7400BCA35A
:10315C00E230BBD441A5DF4AD795D83D6DC4D1A48C
:10316C00FBF4D6D36AE96943FCD96E34468867AD63
:10317C00D0B860DA732D0444E51D03335F4C0AAA02
:10318C00C97C0DDD3C710550AA41022710100BBE05
:10319C0086200CC925B56857B3856F2009D466B94C
:1031AC009FE461CE0EF9DE5E98C9D9292298D0B081
:1031BC00B4A8D7C7173DB359810DB42E3B5CBDB72E
:1031CC00AD6CBAC02083B8EDB6B3BF9A0CE2B603AF
:1031DC009AD2B1743947D5EAAF77D29D1526DB0464
:1031EC008316DC73120B63E3843B64943E6A6D0DAF
:1031FC00A85A6A7A0BCF0EE49DFF099327AE000AFA
:10320C00B19E077D44930FF0D2A3088768F2011E8C
:10321C00FEC206695D5762F7CB67658071366C1923
:10322C00E7066B6E761BD4FEE02BD3895A7ADA1044
:10323C00CC4ADD676FDFB9F9F9EFBE8E43BEB71725
:10324C00D58EB060E8A3D6D67E93D1A1C4C2D838AF
:10325C0052F2DF4FF167BBD16757BCA6DD06B53F15
:10326C004B36B248DA2B0DD84C1B0AAFF64A033654
:10327C00607A0441C3EF60DF55DF67A8EF8E6E31D3
:10328C0079BE69468CB361CB1A8366BCA0D26F251C
:10329C0036E2685295770CCC03470BBBB916022269
:1032AC002F260555BE3BBAC5280BBDB2925AB42B7E
:1032BC00046AB35CA7FFD7C231CFD0B58B9ED92C93
:1032CC001DAEDE5BB0C2649B26F263EC9CA36A75F8
:1032DC000A936D02A906099C3F360EEB85670772AF
:1032EC0013570005824ABF95147AB8E2AE2BB17B16
:1032FC00381BB60C9B8ED2920DBED5E5B7EFDC7C9D
:10330C0021DFDB0BD4D2D38642E2D4F1F8B3DD68F3
:10331C006E83DA1FCD16BE815B26B9F6E177B06FEE
:10332C007747B718E65A0888706A0FFFCA3B0666DB
:10333C005C0B0111FF9E658F69AE62F8D3FF6B6168
:10334C0045CF6C1678E20AA0EED20DD75483044E0A
:10335C00C2B30339612667A7F71660D04D47694998
:10336C00DB776E3E4A6AD1AEDC5AD6D9660BDF40AB
:10337C00F03BD83753AEBCA9C59EBBDE7FCFB2475E
:10338C00E9FFB5301CF2BDBD8AC2BACA3093B35343
:10339C00A6A3B4240536D0BA9306D7CD2957DE544C
:1033AC00BF67D9232E7A66B3B84A61C4021B685D25
:1033BC00942B6F2A37BE0BB4A18E0CC31BDF055A9E
:1033CC008DEF022D0000000000000000010203043C
:0433DC0006070809CF
:0833E000C0D9FF7F01000000CD
:0833E80005020008610D000858
:0433F000E1010008EF
:1033F400000000000040000800400008FCFF000836
:0C340400401F0100100000000024F40034
:0400000508002E9928
:00000001FF
